:020000040800F2
:1000000000000220A12D00089D2C0008A52C00084E
:10001000AD2C0008B52C0008BD2C00080000000025
:10002000000000000000000000000000C52C0008D7
:10003000D32C000800000000E12C0008EF2C000881
:10004000F12D0008F12D0008F12D0008F12D000818
:10005000F12D0008F12D0008F12D0008F12D000808
:10006000F12D0008F12D0008F12D0008F12D0008F8
:10007000F12D0008F12D0008F12D0008F12D0008E8
:10008000F12D0008F12D0008F12D0008F12D0008D8
:10009000F12D0008F12D0008F12D0008F12D0008C8
:1000A000F12D0008F12D0008F12D0008F12D0008B8
:1000B000F12D0008F12D0008F12D0008F12D0008A8
:1000C000F12D0008F12D0008F12D0008F12D000898
:1000D000F12D0008F12D0008F12D0008FD2C00087D
:1000E000F12D0008F12D0008F12D0008F12D000878
:1000F000F12D0008F12D0008F12D0008F12D000868
:10010000F12D0008F12D0008F12D0008F12D000857
:10011000F12D0008F12D0008F12D0008F12D000847
:10012000F12D0008F12D0008F12D0008F12D000837
:10013000F12D0008F12D0008F12D0008F12D000827
:10014000F12D0008F12D0008F12D0008F12D000817
:10015000F12D0008F12D0008F12D0008F12D000807
:10016000F12D0008F12D0008F12D0008F12D0008F7
:10017000F12D0008F12D0008F12D0008000000000D
:08018000F12D0008F12D00082B
:1001900010B5054C237833B9044B13B10448AFF3C1
:1001A00000800123237010BDC80100200000000062
:1001B0008C76000808B5034B1BB103490348AFF325
:1001C000008008BD00000000CC0100208C760008F3
:1001D00010F8012B11F8013B012A28BF9A42F7D0F1
:1001E000D01A70470000000000000000000000006E
:1001F00001F0FF01102A2BDB10F0070F08D010F8D8
:10020000013B013A8B422DD010F0070F42B3F6D1DB
:10021000F0B441EA012141EA014122F007047FF0F4
:1002200000070023F0E80256083C85EA010586EA4B
:10023000010685FA47F5A3FA87F586FA47F6A5FA87
:1002400087F68EB9EED1F0BC01F0FF0102F0070293
:1002500032B110F8013B013A83EA010313B1F8D13E
:100260000020704701387047002D06BF354603381F
:10027000073815F0010F07D1013015F4807F02BF58
:10028000013015F4C03F0130F0BC0138704700BFA9
:1002900053B94AB9002908BF00281CBF4FF0FF31ED
:1002A0004FF0FF3000F088B9ADF1080C6DE904CED5
:1002B00000F006F8DDF804E0DDE9022304B0704741
:1002C0002DE9F047089D0F4604468C46002B48D187
:1002D0008A42164661D9B2FA82F34BB1C3F12002C9
:1002E00001FA03FC20FA02F29E4042EA0C0C9C4008
:1002F0004FEA164EB7B2BCFBFEF1220C0EFB11CC3E
:1003000042EA0C4201FB07F0904209D9B21801F110
:10031000FF3C80F0EE80904240F2EB8002393244A4
:10032000121AA4B2B2FBFEF00EFB102244EA024401
:1003300000FB07F7A74209D9341900F1FF3280F01A
:10034000DA80A74240F2D7803444023840EA0140C4
:10035000E41B00211DB1DC400023C5E90043BDE8DA
:10036000F0878B4206D90DB1C5E90001002108468E
:10037000BDE8F087B3FA83F1002948D1BB4202D32C
:10038000824200F20781841A67EB0302012094463F
:10039000002DE4D0C5E9004CE1E7002A00F092808E
:1003A000B2FA82F3002B40F0A8808A1A4FEA164E68
:1003B0001FFA86FC0121200CB2FBFEF70EFB172270
:1003C00040EA02420CFB07F0904207D9B21807F14D
:1003D000FF3802D2904200F2E2804746121AA4B2DD
:1003E000B2FBFEF00EFB102244EA02440CFB00FCC0
:1003F000A44507D9341900F1FF3202D2A44500F216
:10040000CB801046A4EB0C0440EA0740A2E7C1F100
:1004100020068B4022FA06FC4CEA030C07FA01F492
:1004200020FA06F3F7404FEA1C49234300FA01F88B
:100430001FFA8CFEB7FBF9F01C0C09FB107744EA9D
:10044000074400FB0EF7A74202FA01F20AD91CEB9F
:10045000040400F1FF3A80F09B80A74240F29880AC
:1004600002386444E41B9FB2B4FBF9F309FB134464
:1004700047EA044403FB0EFEA64509D91CEB04041D
:1004800003F1FF3780F08280A6457FD9023B6444A8
:1004900043EA0040A4EB0E04A0FB02E7BC42734613
:1004A000B94663D360D05DB1B8EB030264EB0904D5
:1004B00004FA06F622FA01F31E43CC40C5E90064B3
:1004C00000214CE76208480842EAC1710B0C43EA7C
:1004D00000438AB242EA0342B3FBF6F1E407B446B2
:1004E0003746B6461F23B0FBF6F0D21B41EA004167
:1004F00061E7614614E7104628E7C3F1200120FABE
:1005000001F29E4027FA01F19F403A434FEA164E0E
:100510001FFA86FCB1FBFEF70EFB1710110C41EA27
:10052000004107FB0CF8884504FA03F43AD9711826
:1005300007F1FF3001D288451FD8A1EB0801B1FBBC
:10054000FEF808FB0CF70EFB181192B242EA0142CA
:10055000BA422FD2B21808F1FF31C6D2BA42C4D281
:10056000A8F102013244C0E7F0459CD2BEEB020381
:1005700067EB0C070138B94695E7A6EB080841443C
:10058000B81EB1FBFEF808FB0CF7DCE73B467FE743
:10059000504667E70846FBE63444023832E7023F3C
:1005A00032441BE7A1EB08013846B1FBFEF808FB1B
:1005B0000CF7C8E7414698E7704700BF80B584B0A4
:1005C00000AF02F017FC00F033F900F0B3FA00F0CE
:1005D00087FA00F08BF900F0EDF900F03BFA02F039
:1005E00053F802F0A5F801F02FFD3C217D4804F0FE
:1005F00043FE3C217C4804F03FFE02F009F908214B
:100600007A4804F0CBFC0C21784804F0C7FC0021A8
:10061000774804F0C3FC0421754804F0BFFC0421B2
:10062000744804F0BBFC01F0DFFC01F013F9012277
:100630007149724805F043FB01F0BCFD704B1B781B
:10064000DBB2002B11D06E4B1B78FB736C4B00227E
:100650001A70FB7B012B02D0022B03D005E001F0C6
:100660000DF902E001F01CF900BF664B1B78DBB20C
:10067000002B11D0634B1B78BB73634B1B88BB8172
:10068000604B00221A70604B00221A80BA89BB7B33
:100690001146184601F02EFB5C4B1B889BB2002BC9
:1006A00009D05A4B1B887B81584B00221A807B89CA
:1006B000184601F08FF9564B1B889BB2002B09D0CE
:1006C000534B1B883B81524B00221A803B891846B2
:1006D00001F098F94F4B1B889BB2002B09D04D4B72
:1006E0001B88FB804B4B00221A80FB88184601F0C8
:1006F000A1F9494B1B889BB2002B09D0464B1B88A4
:10070000BB80454B00221A80BB88184601F0AAF92D
:10071000424B1B78DBB2002B11D0404B1B78FB7097
:100720003F4B1B883B803D4B00221A703C4B002204
:100730001A803A88FB781146184601F0ABF9394B1C
:100740001B78DBB2002B04D0364B00221A7001F06C
:10075000BDFD354B1B78DBB2002B04D0324B0022A1
:100760001A7001F0EBFD264B1B78DBB2002B7FF4F7
:1007700065AF244B1B78DBB2002B7FF45FAF234BBC
:100780001B889BB2002B7FF459AF224B1B889BB276
:10079000002B7FF453AF204B1B889BB2002B7FF4C0
:1007A0004DAF1B4B1B889BB2002B7FF447AF1B4BFD
:1007B0001B78DBB2002B7FF441AF1A4B1B78DBB206
:1007C000002B7FF43BAF184B1B78DBB2002B7FF480
:1007D00035AF4FF48071154802F0FBFEC82002F0DF
:1007E0007BFB2BE7E40100202C0200207402002098
:1007F000BC02002004030020E8030020A003002026
:100800000D0400200E04002010040020120400201B
:100810001404002016040020180400201A040020EC
:100820001C0400201E0400201F04002000100240B1
:1008300080B594B000AF07F12003302200211846A4
:1008400006F08CFA07F10C0300221A605A609A60D5
:10085000DA601A610023BB60224B1B6C214A43F013
:10086000805313641F4B1B6C03F08053BB60BB6849
:1008700000237B601C4B1B681B4A43F480431360BE
:10088000194B1B6803F480437B607B6802233B6247
:100890000123FB6210233B630023BB6307F12003AA
:1008A000184603F0D5FE0346002B01D001F0C4FF2B
:1008B0000F23FB6000233B6100237B610023BB61AE
:1008C0000023FB6107F10C030021184604F038F9FE
:1008D0000346002B01D001F0AFFF00BF5037BD46EB
:1008E00080BD00BF003802400070004080B58AB073
:1008F00000AF07F1200300221A605A603B1D00225E
:100900001A605A609A60DA601A615A619A61274BDC
:10091000274A1A60254B00225A60244B00229A6015
:10092000224B4FF6FF72DA60204B00221A611F4BF8
:1009300000229A611D4804F0E1FA0346002B01D021
:1009400001F07AFF00233B6200237B6207F1200362
:100950001946164805F05CF80346002B01D001F05B
:100960006BFF60237B600023BB600023FB600023E0
:100970007B613B1D082219460C4804F00BFD034621
:10098000002B01D001F058FF3B1D0C2219460748EF
:1009900004F000FD0346002B01D001F04DFF034899
:1009A00002F05AF800BF2837BD4680BD740200200F
:1009B0000008004080B588B000AF3B1D00221A60DF
:1009C0005A609A60DA601A615A619A611F4B204A34
:1009D0001A601E4B00225A601C4B00229A601B4B6F
:1009E0004FF6FF72DA60194B00221A61174B002292
:1009F0009A61164804F082FA0346002B01D001F0F8
:100A00001BFF60237B600023BB600023FB6000238F
:100A10007B613B1D002219460C4804F0BBFC0346D9
:100A2000002B01D001F008FF3B1D042219460748A6
:100A300004F0B0FC0346002B01D001F0FDFE03489A
:100A400002F00AF800BF2037BD4680BDBC0200207E
:100A50000040014080B588B000AF3B1D00221A6005
:100A60005A609A60DA601A615A619A611A4B1B4A9D
:100A70001A60194B0F225A60174B00229A60164BCE
:100A800044F61F62DA60144B00221A61124B0022F6
:100A90009A61114804F032FA0346002B01D001F0AC
:100AA000CBFE60237B600023BB600023FB60002340
:100AB0007B613B1D04221946074804F06BFC03468A
:100AC000002B01D001F0B8FE034801F0C5FF00BFC4
:100AD0002037BD4680BD00BF040300200018004041
:100AE00080B500AF114B124A1A60104B4FF4E1323F
:100AF0005A600E4B00229A600C4B0022DA600B4BBE
:100B000000221A61094B0C225A61084B00229A619B
:100B1000064B0022DA61054804F0F6FF0346002B7D
:100B200001D001F089FE00BF80BD00BFA0030020FE
:100B30000048004080B58AB000AF07F114030022DE
:100B40001A605A609A60DA601A6100233B61324B86
:100B50001B6B314A43F0100313632F4B1B6B03F0E5
:100B600010033B613B690023FB602B4B1B6B2A4A44
:100B700043F002031363284B1B6B03F00203FB607B
:100B8000FB680023BB60244B1B6B234A43F0080324
:100B90001363214B1B6B03F00803BB60BB6800238E
:100BA0007B601D4B1B6B1C4A43F0010313631A4B04
:100BB0001B6B03F001037B607B6800224FF48071A4
:100BC000164802F0EDFC00224FF48071144802F048
:100BD000E7FC4FF480737B610123BB610023FB6161
:100BE00000233B6207F1140319460C4802F03CFB5A
:100BF0004FF480737B610123BB610023FB61002301
:100C00003B6207F114031946054802F02DFB00BFB3
:100C10002837BD4680BD00BF0038024000100240AA
:100C20000000024090B59DB002AF78607B681B6801
:100C3000A04A934240F043859F4B1B780D2B04D074
:100C40009D4B1B780A2B40F000859C4B1B78002B9A
:100C500000F03085994B1B781A46994B0021995426
:100C600098499748FFF7B4FA0346002B08D14FF094
:100C7000FF3306229449954804F096FF00F0DCBC4F
:100C800093498F48FFF7A4FA0346002B0BD1914BF1
:100C900001221A704FF0FF3307228F498B4804F06E
:100CA00083FF00F0C9BC8D498548FFF791FA0346E0
:100CB000002B0BD1874B02221A704FF0FF33072213
:100CC0008749824804F070FF00F0B6BC85497C4833
:100CD000FFF77EFA0346002B28D1834B01221A70BE
:100CE0007C4B00221A70814B00221A70804B00222C
:100CF0001A80804B00221A807F4B00221A807F4B83
:100D000000221A807E4B00221A807E4B00221A702D
:100D10007D4B00221A8000F09DFD4FF0FF3307222B
:100D20007A496A4804F040FF00F086BC784964487C
:100D3000FFF74EFA0346002B0AD101F055F94FF0A8
:100D4000FF3308227349614804F02EFF00F074BCA1
:100D500071495B48FFF73CFA0346002B0AD101F0CA
:100D60004BF94FF0FF3308226C49584804F01CFF40
:100D700000F062BC6A495248FFF72AFA0346002B8A
:100D80000AD101F045F94FF0FF33082265494F4879
:100D900004F00AFF00F050BC63494948FFF718FA15
:100DA0000346002B0AD101F03FF94FF0FF33082230
:100DB0005E49464804F0F8FE00F03EBC5C494048FD
:100DC000FFF706FA0346002B0AD101F035F94FF080
:100DD000FF33082257493D4804F0E6FE00F02CBCE2
:100DE00055493748FFF7F4F90346002B1ED101F0AF
:100DF000F3FC03461C4601F0FDFC034607F1080026
:100E0000009323464D4A302105F0EEFEF863FB6B5C
:100E1000002B40F31184FB6B9AB207F108014FF0ED
:100E2000FF332A4804F0C0FE00F006BC44492448C1
:100E3000FFF7CEF90346002B09D101F0E9FC4FF092
:100E4000FF330A223F49214804F0AEFEF4E33E4955
:100E50001B48FFF7BDF90346002B03D13B4B012292
:100E60001A70E9E33A491648FFF7B2F90346002B36
:100E700003D1384B01221A70DEE3032236491048B1
:100E800005F074FF0346002B40F0A580334B184655
:100E900005F0A6FE38643B6C2C2B03DD3B6CB3F5F0
:100EA000B47F5FDD4FF0FF330B222D49074804F07C
:100EB0007BFEC1E300480040E80300200C04002052
:100EC000EC030020A476000800000020A00300200E
:100ED000AC7600080D04002018000020B076000851
:100EE00020000020B4760008200400200E0400201A
:100EF0001004002012040020140400201604002016
:100F0000180400201A0400201C04002028000020DF
:100F1000B876000830010020BC7600083C010020B3
:100F2000C076000848010020C47600085401002063
:100F3000C876000860010020CC760008D076000852
:100F4000E0760008E8760008F47600081E04002029
:100F5000F87600081F04002000770008EF03002047
:100F6000300000209B4B1B78DBB2002B40F06483E9
:100F7000994B1B78DBB2002B40F05E83974B1B88AC
:100F80009BB2002B40F05883954B1B889BB2002BE3
:100F900040F05283934B1B889BB2002B40F04C8354
:100FA000914B1B889BB2002B40F046838F4B1B78E4
:100FB000DBB2002B40F04083874B01221A703B6C60
:100FC0009AB28B4B1A804FF0FF33082289498A4826
:100FD00004F0EAFD30E303228849894805F0C6FEA3
:100FE0000346002B4CD1874B184605F0F9FD786479
:100FF0007B6C2C2B03DD7B6CB3F5B47F07DD4FF0EE
:10100000FF330B2280497C4804F0CEFD14E3714B82
:101010001B78DBB2002B40F00F836F4B1B78DBB2E9
:10102000002B40F009836D4B1B889BB2002B40F0D6
:1010300003836B4B1B889BB2002B40F0FD82694BF6
:101040001B889BB2002B40F0F782674B1B889BB23A
:10105000002B40F0F182654B1B78DBB2002B40F097
:10106000EB825D4B02221A707B6C9AB2604B1A8045
:101070004FF0FF33082265495F4804F095FDDBE23D
:10108000032263495E4805F071FE0346002B4CD1F4
:101090005C4B184605F0A4FDB864BB6C2C2B03DD3B
:1010A000BB6CB3F5B47F07DD4FF0FF330B2256491D
:1010B000514804F079FDBFE2464B1B78DBB2002BB0
:1010C00040F0BA82444B1B78DBB2002B40F0B48274
:1010D000424B1B889BB2002B40F0AE82404B1B88DA
:1010E0009BB2002B40F0A8823E4B1B889BB2002B8A
:1010F00040F0A2823C4B1B889BB2002B40F09C82AC
:101100003A4B1B78DBB2002B40F09682324B032225
:101110001A70BB6C9AB2364B1A804FF0FF3308221C
:101120003C49354804F040FD86E203223A49344800
:1011300005F01CFE0346002B72D1324B184605F019
:101140004FFDF864FB6C2C2B03DDFB6CB3F5B47F17
:1011500007DD4FF0FF330B222B49274804F024FD15
:101160006AE21C4B1B78DBB2002B40F065821A4B05
:101170001B78DBB2002B40F05F82184B1B889BB2C0
:10118000002B40F05982164B1B889BB2002B40F07D
:101190005382144B1B889BB2002B40F04D82124BA4
:1011A0001B889BB2002B40F04782104B1B78DBB2B0
:1011B000002B40F04182084B04221A70FB6C9AB25B
:1011C0000B4B1A804FF0FF33082214490A4804F0F1
:1011D000EBFC31E20D0400200E040020120400207C
:1011E0001604002018040020140400201A04002013
:1011F0001004002084000020A003002004770008D1
:10120000EC030020EF0300203000002090000020BD
:10121000087700089C0000200C770008A800002038
:1012200003228649864805F0A1FD0346002B48D1DC
:10123000844B184605F0D4FC38653B6D042B02DD69
:101240003B6DC82B07DD4FF0FF330B227E497F48F3
:1012500004F0AAFCF0E17E4B1B78DBB2002B40F0DF
:10126000EB817C4B1B78DBB2002B40F0E5817A4BA5
:101270001B889BB2002B40F0DF81784B1B889BB210
:10128000002B40F0D981764B1B889BB2002B40F09D
:10129000D381744B1B889BB2002B40F0CD81724BE5
:1012A0001B78DBB2002B40F0C7813B6D9AB26A4BD2
:1012B0001A804FF0FF3308226C49644804F074FC34
:1012C000BAE103226A495E4805F050FD0346002B4F
:1012D00048D15C4B184605F083FC78657B6D042B88
:1012E00002DD7B6DC82B07DD4FF0FF330B22564923
:1012F000564804F059FC9FE1554B1B78DBB2002B9C
:1013000040F09A81534B1B78DBB2002B40F0948164
:10131000514B1B889BB2002B40F08E814F4B1B889A
:101320009BB2002B40F088814D4B1B889BB2002B59
:1013300040F082814B4B1B889BB2002B40F07C819C
:10134000494B1B78DBB2002B40F076817B6D9AB263
:10135000444B1A804FF0FF33082246493B4804F0C3
:1013600023FC69E103224449354805F0FFFC0346AC
:10137000002B48D1334B184605F032FCB865BB6DE5
:10138000042B02DDBB6DC82B07DD4FF0FF330B22B2
:101390002D492E4804F008FC4EE12D4B1B78DBB2A2
:1013A000002B40F049812B4B1B78DBB2002B40F027
:1013B0004381294B1B889BB2002B40F03D81274B7A
:1013C0001B889BB2002B40F03781254B1B889BB2BA
:1013D000002B40F03181234B1B889BB2002B40F047
:1013E0002B81214B1B78DBB2002B40F02581BB6D9C
:1013F0009AB21A4B1A804FF0FF3308221F49134844
:1014000004F0D2FB18E103221D490D4805F0AEFCA3
:101410000346002B6CD10B4B184605F0E1FBF86539
:10142000FB6D042B02DDFB6DC82B2BDD4FF0FF3372
:101430000B220549054804F0B7FBFDE010770008D2
:10144000EC030020EF03002030000020A003002068
:101450000D0400200E0400201204002016040020B9
:1014600018040020140400201A0400203C0000206E
:101470001477000848000020187700085400002066
:101480001C770008904B1B78DBB2002B40F0D48017
:101490008E4B1B78DBB2002B40F0CE808C4B1B8830
:1014A0009BB2002B40F0C8808A4B1B889BB2002B5C
:1014B00040F0C280884B1B889BB2002B40F0BC8060
:1014C000864B1B889BB2002B40F0B680844B1B7868
:1014D000DBB2002B40F0B080FB6D9AB27E4B1A80DD
:1014E0004FF0FF3308227F497F4804F05DFBA3E003
:1014F00003227E497E4805F039FC0346002B46D185
:101500007C4B184605F06CFB38663B6E592B03DDAF
:101510003B6EB3F5B47F07DD4FF0FF330B22764906
:10152000714804F041FB87E0674B1B78DBB2002B6E
:1015300040F08280654B1B78DBB2002B7CD1644B82
:101540001B889BB2002B77D1624B1B889BB2002B70
:1015500072D1614B1B889BB2002B6DD15F4B1B88F6
:101560009BB2002B68D15E4B1B78DBB2002B63D1A2
:101570005B4B01221A703B6E9AB2604B1A804FF09F
:10158000FF3308225E49584804F00EFB54E0032262
:101590005C49574805F0EAFB0346002B45D1554B03
:1015A000184605F01DFB78667B6E592B03DD7B6EBC
:1015B000B3F5B47F07DD4FF0FF330B224E494A48A5
:1015C00004F0F2FA38E0404B1B78DBB2002B33D149
:1015D0003E4B1B78DBB2002B2ED13D4B1B889BB2C0
:1015E000002B29D13B4B1B889BB2002B24D13A4BBB
:1015F0001B889BB2002B1FD1384B1B889BB2002B42
:101600001AD1374B1B78DBB2002B15D1344B022299
:101610001A707B6E9AB2394B1A804FF0FF33082252
:101620003949314804F0C0FA06E04FF0FF330D228B
:1016300036492D4804F0B8FA354B00221A702022A2
:1016400000212B4805F08AFB34E0324B1B78082B35
:1016500003D0304B1B787F2B14D12D4B1B78002BE4
:1016600028D02B4B1B78013BDAB2294B1A702A4B3E
:10167000BB6307F138014FF0FF3303221A4804F02F
:1016800093FA17E0224B1B781E2B0BD8204B1B78AC
:101690005A1CD1B21E4A11701A461E4B1978144BAF
:1016A000995407E01A4B00221A702022002110489A
:1016B00005F054FB012217490B4804F000FB00BF62
:1016C0006C37BD4690BD00BF0D0400200E04002005
:1016D0001204002016040020180400201404002026
:1016E0001A04002060000020A003002020770008DA
:1016F000EC030020EF030020300000201C04002039
:101700006C000020247700087800002008000020EA
:101710000C040020E80300200820080080B400AF7B
:10172000064B1B6800221A64044B1B680022DA6314
:1017300000BFBD465DF8047B704700BF7402002007
:1017400080B483B000AF7860064B1B687A681A6477
:10175000044B1B687A68DA6300BF0C37BD465DF83E
:10176000047B70477402002080B483B000AF7860BF
:10177000064B1B6800221A64044B1B687A68DA6304
:1017800000BF0C37BD465DF8047B70477402002033
:1017900080B483B000AF7860064B1B687A681A6427
:1017A000044B1B680022DA6300BF0C37BD465DF8AE
:1017B000047B70477402002080B400AF064B1B68A6
:1017C00000225A63044B1B6800229A6300BFBD4687
:1017D0005DF8047B704700BFBC02002080B483B07A
:1017E00000AF7860064B1B687A685A63044B1B682D
:1017F0007A689A6300BF0C37BD465DF8047B70477A
:10180000BC02002080B483B000AF7860064B1B6838
:101810007A685A63044B1B6800229A6300BF0C3736
:10182000BD465DF8047B7047BC02002080B483B0E5
:1018300000AF7860064B1B6800225A63044B1B689C
:101840007A689A6300BF0C37BD465DF8047B704729
:10185000BC02002080B500AFFFF760FFFFF7ACFFD0
:1018600000BF80BD80B500AF4FF6FF70FFF768FF87
:101870004FF6FF70FFF7B2FF00BF80BD80B500AF2D
:1018800047F6FF70FFF770FF47F6FF70FFF7BAFFEC
:101890004FF4FA7001F020FBFFF7DCFF00BF80BDC2
:1018A00080B500AF47F6FF70FFF772FF47F6FF7095
:1018B000FFF7BCFF4FF4FA7001F00EFBFFF7CAFF11
:1018C00000BF80BD80B582B000AF00F085FF034649
:1018D0007B6000F08FFF03463B607B68002B02DAE1
:1018E0007B685B427B603B68002B02DA3B685B42B3
:1018F0003B607A683B681344DA0F13445B10184668
:101900000837BD4680BD000080B586B000AFB96025
:101910007A601A460346FB8113467B73FB897A681B
:1019200002FB03F3284AA2FB03235B097B61274BDD
:1019300000221A7000F058FBC82001F0CDFA00F028
:1019400067FF7B7B002B06D0B868FFF721FFB868E4
:10195000FFF76CFF05E0B868FFF706FFB868FFF710
:1019600051FF01F0ADFA38610DE0184B1B78DBB286
:10197000002B0FD101F0A4FA02463B69D31A4EF6B0
:101980006022934208D8FFF79DFF02467B6993428D
:10199000EBD802E000BF00E000BFFFF763FFFA20D2
:1019A00001F09AFAFFF756FF084B1B78DBB2002BC9
:1019B00006D1BA8C4FF0FF33396A054804F0F4F8C9
:1019C00000BF1837BD4680BD1F85EB5120040020A5
:1019D000A003002080B584B002AF0346FB80F888E6
:1019E00009230193064B0093002341F6290247F691
:1019F000FF71FFF789FF00BF0837BD4680BD00BFFC
:101A0000B400002080B584B002AF0346FB80F888A4
:101A100009230193064B0093012341F6290247F65F
:101A2000FF71FFF771FF00BF0837BD4680BD00BFE3
:101A3000C000002080B584B002AF0346FB80F88868
:101A400009230193064B0093002341F60E4243F213
:101A50003331FFF759FF00BF0837BD4680BD00BFD7
:101A6000CC00002080B584B002AF0346FB80F8882C
:101A700009230193064B0093012341F60E4243F2E2
:101A80003331FFF741FF00BF0837BD4680BD00BFBF
:101A9000D800002080B590B000AF03460A46FB7125
:101AA0001346BB804FF00003FB634FF00003BB63A2
:101AB000BB8807EE903AF8EE677AB0EE087A77EED8
:101AC000C77AC7ED0D7A824B00221A70D7ED0D7AD6
:101AD000B7EE007AF4EEC77AF1EE10FA02D54FF0C5
:101AE0007E537B6300F066FB0023FB6223E0002350
:101AF000FB820023BB8200237B8207F1120207F1E5
:101B0000140107F11603184600F06CFD0346002B84
:101B10000BD1B7F9123007EE903AF8EEE77A97ED6D
:101B20000F7A77EE277AC7ED0F7A052001F0D4F906
:101B3000FB6A0133FB62FB6A272BD8DD97ED0F7A36
:101B4000DFED646AC7EE267AC7ED0F7AFB79012BC9
:101B500008D146F68430FFF707FE44F2AD70FFF778
:101B600065FE07E044F2AD70FFF712FE46F68430E2
:101B7000FFF748FEBB884FF4FA5202FB03F35B0801
:101B8000554AA2FB03235B097B6201F099F9386295
:101B90003B6A3B636CE000233B820023FB81002314
:101BA000BB814B4B1B78DBB2002B6AD107F10C02D7
:101BB00007F10E0107F11003184600F013FD03466C
:101BC000002B54D101F07CF9F861FA693B6BD31A10
:101BD00007EE903AF8EE677A9FED407A67EE877AE3
:101BE000C7ED0A7AFB693B63D7ED0A7AF5EEC07A56
:101BF000F1EE10FA08D9D7ED0A7A9FED397AF4EEB2
:101C0000C77AF1EE10FA01DD364BBB62B7F90C3042
:101C100007EE903AB8EEE77AD7ED0F7A77EE677A6B
:101C2000C7ED067A97ED067AD7ED0A7A67EE277A3E
:101C300097ED0E7A77EE277AC7ED0E7AFB79012BB6
:101C400009D197ED0E7AD7ED0D7AB4EEE77AF1EE81
:101C500010FA18DA0CE0D7ED0D7AF1EE677A97ED0D
:101C60000E7AB4EEE77AF1EE10FA0ED900E000BF7A
:101C700001F026F902463B6AD31A7A6A9A428AD858
:101C800004E000BF02E000BF00E000BFFFF7EAFD94
:101C9000FA2001F021F9FFF7DDFD0D4B1B78DBB2D7
:101CA000002B11D1FB79012B07D14FF0FF33092213
:101CB0000D490E4803F078FF06E04FF0FF3309228C
:101CC0000B490A4803F070FF00BF4037BD4680BD96
:101CD0002004002000002042B7600BB66F12833A48
:101CE000CDCC4C3D0AD7233CE4000020A0030020CB
:101CF000F000002080B592B000AF03460A46FB71A9
:101D00001346BB804FF000037B644FF000033B643D
:101D1000BB8807EE903AF8EE677A9FED957A67EE0A
:101D2000877AC7ED0F7A934B00221A70D7ED0F7A9E
:101D3000B7EE007AF4EEC77AF1EE10FA02D54FF062
:101D40007E53FB63FB79032B02D0FB79042B01D17B
:101D5000012300E000237B62FB79012B04D1864B39
:101D60007B6309237B8613E0FB79022B04D1834B31
:101D70007B6309237B860BE0FB79032B04D1804B2B
:101D80007B6309237B8603E07E4B7B6309237B8691
:101D900000F010FA0023FB6223E000237B82002383
:101DA0003B820023FB8107F10E0207F1100107F1CE
:101DB0001203184600F016FC0346002B0BD1B7F9AE
:101DC0000E3007EE903AF8EEE77A97ED117A77EE5B
:101DD000277AC7ED117A052001F07EF8FB6A0133FE
:101DE000FB62FB6A272BD8DD97ED117ADFED666A7F
:101DF000C7EE267AC7ED117AFB79012B02D0FB7969
:101E0000032B02D100F010F901E000F015F9C82011
:101E100001F062F87B6A002B08D143F23330FFF700
:101E2000A3FC43F23330FFF7EDFC07E043F233301D
:101E3000FFF7AEFC43F23330FFF7F8FCBB884FF4FA
:101E4000FA5202FB03F35B08504AA2FB03235B092F
:101E50003B6201F035F8F861FB69BB635FE000238A
:101E6000BB8100237B8100233B81424B1B78DBB28B
:101E7000002B5DD107F1080207F10A0107F10C03FD
:101E8000184600F0AFFB0346002B47D101F018F8CD
:101E9000B861BA69BB6BD31A07EE903AF8EE677A6D
:101EA0009FED3B7A67EE877AC7ED0A7ABB69BB6321
:101EB000D7ED0A7AF5EEC07AF1EE10FA08D9D7ED2F
:101EC0000A7A9FED347AF4EEC77AF1EE10FA01DD6A
:101ED000314BBB62B7F9083007EE903AB8EEE77ABB
:101EE000D7ED117A77EE677AC7ED057A97ED057A27
:101EF000D7ED0A7A67EE277A97ED107A77EE277A90
:101F0000C7ED107AD7ED107AF0EEE77A97ED0F7AF9
:101F1000B4EEE77AF1EE10FA0CD900E000BF00F061
:101F2000CFFF0246FB69D31A3A6A9A4297D802E079
:101F300000BF00E000BFFFF795FCFA2000F0CCFFE7
:101F4000FFF788FC00F050F8C82000F0C5FF094BEF
:101F50001B78DBB2002B06D17A8E4FF0FF33796B02
:101F60000E4803F021FE00BF4837BD4680BD00BFCC
:101F70007F6A7C3F20040020FC0000200801002034
:101F8000140100202001002000002042B7600BB6A1
:101F90006F12833ACDCC4C3D0AD7233CA0030020DE
:101FA00080B483B000AF78607B68B3F57A7F02D2EB
:101FB0004FF47A737B607B68B3F5FA6F02D94FF404
:101FC000FA637B60064A7B681360064B1B68044A11
:101FD00012689A6300BF0C37BD465DF8047B7047FA
:101FE0002C0100200403002080B500AF40F2DC503B
:101FF000FFF7D6FF00BF80BD80B500AF034B1B6865
:10200000643B1846FFF7CCFF00BF80BD2C010020C9
:1020100080B500AF034B1B6864331846FFF7C0FF61
:1020200000BF80BD2C01002080B500AF4FF47A7056
:10203000FFF7B6FF00BF80BD80B500AF4FF4FA6078
:10204000FFF7AEFF00BF80BD80B500AF124B134A53
:102050001A60114B124A5A600F4B00229A600E4BC5
:102060000022DA600C4B4FF480421A610A4B0022C6
:102070005A61094B00229A61074B0022DA61064B34
:1020800000221A62044801F0BFFA0346002B01D077
:1020900000F0D2FB00BF80BD4C0300200058004080
:1020A000A086010080B588B004AF78600023FB7380
:1020B0000023BB737B68002B02D07B6800221A7060
:1020C000642302930123019307F10F03009301237B
:1020D0007F22D021134801F0DBFB0346002B02D006
:1020E0004FF0FF3319E0642302930123019307F1BA
:1020F0000E03009301230022D0210A4801F0C2FC04
:102100000346002B02D04FF0FF3306E07B68002B24
:1021100002D0BA7B7B681A70002318461037BD4680
:1021200080BD00BF4C03002080B588B004AF0346DB
:10213000FB71FB791B01DBB2FB7364230293012368
:10214000019307F10F03009301237F22D021074859
:1021500001F09EFB0346002B02D04FF0FF3300E05E
:10216000002318461037BD4680BD00BF4C03002039
:1021700080B586B004AF03460A46FB711346BB71B7
:10218000FB799AB26423029301230193BB1D009350
:102190000123D021064801F07BFB0346002B02D02F
:1021A0004FF0FF3300E0002318460837BD4680BDDE
:1021B0004C03002080B582B000AF0023FB71424B7E
:1021C0001B78002B01D0002379E0FB1D1846FFF798
:1021D00069FF0346002B02D1FB79EA2B02D04FF0B6
:1021E000FF336CE00020FFF79FFF0346002B02D077
:1021F0004FF0FF3363E080210620FFF7B9FF03466D
:10220000002B02D04FF0FF3359E0642000F064FE51
:102210000020FFF789FF0346002B02D04FF0FF3369
:102220004DE001210620FFF7A3FF0346002B02D05B
:102230004FF0FF3343E00A2000F04EFE002105205E
:10224000FFF796FF0346002B02D04FF0FF3336E036
:1022500000210720FFF78CFF0346002B02D04FF030
:10226000FF332CE01E2000F037FE0220FFF75CFF5A
:102270000346002B02D04FF0FF3320E00021002066
:10228000FFF776FF0346002B02D04FF0FF3316E036
:1022900007210120FFF76CFF0346002B02D04FF00F
:1022A000FF330CE00020FFF73FFF0346002B02D076
:1022B0004FF0FF3303E0044B01221A70002318464D
:1022C0000837BD4680BD00BF2104002080B58CB01A
:1022D00000AF002387F82B3007F12B031846FFF7D8
:1022E000E1FE0346002B0CD197F82B30EA2B08D1E6
:1022F00097F82B3038460E4A282104F075FCF86216
:1023000007E097F82B3038460A4A282104F06CFC85
:10231000F862FB6A002B07DDFB6A9AB239464FF080
:10232000FF33054803F040FC00BF3037BD4680BD99
:102330002877000838770008A0030020F0B5ABB07C
:1023400008AF0023A7F882300023A7F880300023CD
:10235000A7F87E300023A7F87C300023A7F87A3056
:102360000023A7F878300023A7F876300023A7F8D9
:1023700074300023A7F87230FFF71CFF07F17802D2
:1023800007F17A0107F17C03184600F08BF8034649
:10239000002B63D107F1720207F1740107F1760394
:1023A000184600F0CFF80346002B57D1B7F97C3020
:1023B0001A46642302FB03F3364A82FB03125212CD
:1023C000DB17D31AA7F88230B7F97A301A4664239C
:1023D00002FB03F32F4A82FB03125212DB17D31ABC
:1023E000A7F88030B7F978301A46642302FB03F36C
:1023F000284A82FB03125212DB17D31AA7F87E3049
:10240000B7F98210B7F98030FB60B7F97E20B7F9D1
:102410007C000446B7F97A000546B7F9780006460D
:10242000B7F97600B860B7F974007860B7F9720050
:10243000034607F1100007937B680693BB6805937A
:102440000496039502940192FB6800930B46124A8E
:10245000602104F0C9FBC7F8840008E007F110030D
:102460000E4A6021184604F0BFFBC7F88400D7F875
:102470008430002B09DDD7F884309AB207F11001BF
:102480004FF0FF33064803F08FFB00BF8C37BD468B
:10249000F0BD00BFFF04EC4F4877000884770008C8
:1024A000A003002080B58AB004AFF860B9607A60FC
:1024B0000020FFF739FE0346002B02D04FF0FF3318
:1024C0003AE0642302930623019307F1100300937B
:1024D00001233322D0211A4801F0D4FA0346002BFD
:1024E00002D04FF0FF3327E0FB68002B09D03B7C84
:1024F0001BB21B021AB27B7C1BB213431AB2FB68DD
:102500001A80BB68002B09D0BB7C1BB21B021AB21D
:10251000FB7C1BB213431AB2BB681A807B68002B8A
:1025200009D03B7D1BB21B021AB27B7D1BB2134349
:102530001AB27B681A80002318461837BD4680BD42
:102540004C03002080B58AB004AFF860B9607A60AF
:102550000020FFF7E9FD0346002B02D04FF0FF33C8
:102560003AE0642302930623019307F110030093DA
:1025700001232D22D0211A4801F084FA0346002BB2
:1025800002D04FF0FF3327E0FB68002B09D03B7CE3
:102590001BB21B021AB27B7C1BB213431AB2FB683C
:1025A0001A80BB68002B09D0BB7C1BB21B021AB27D
:1025B000FB7C1BB213431AB2BB681A807B68002BEA
:1025C00009D03B7D1BB21B021AB27B7D1BB21343A9
:1025D0001AB27B681A80002318461837BD4680BDA2
:1025E0004C03002080B586B000AFF860B9607A6017
:1025F00007F1120207F1140107F116031846FFF75D
:1026000051FF0346002B02D04FF0FF3336E0FB684A
:10261000002B0ED0B7F916301A46642302FB03F3E1
:10262000184A82FB03125212DB17D31A1AB2FB6844
:102630001A80BB68002B0ED0B7F914301A466423F9
:1026400002FB03F30F4A82FB03125212DB17D31A69
:102650001AB2BB681A807B68002B0ED0B7F9123013
:102660001A46642302FB03F3064A82FB031252124A
:10267000DB17D31A1AB27B681A8000231846183762
:10268000BD4680BDFF04EC4F80B58CB000AF07F1B4
:102690000C0324220021184604F060FB3B1D00229D
:1026A0001A605A60214B4FF080421A601F4B002283
:1026B0005A601E4B00229A601C4B4FF6FF72DA6084
:1026C0001A4B00221A61194B00229A610323FB6006
:1026D00000233B6101237B610023BB610423FB6179
:1026E00000233B6201237B620023BB620423FB6265
:1026F00007F10C0319460D4802F018FD0346002BA4
:1027000001D000F099F800237B600023BB603B1DE3
:102710001946064803F07CF90346002B01D000F06F
:102720008BF800BF3037BD4680BD00BFE4010020FC
:1027300080B58CB000AF07F10C03242200211846AD
:1027400004F00CFB3B1D00221A605A60204B214A0A
:102750001A601F4B00225A601D4B00229A601C4BCE
:102760004FF6FF72DA601A4B00221A61184B0022F2
:102770009A610323FB6000233B6101237B610023FB
:10278000BB610423FB6100233B6201237B620023C6
:10279000BB620423FB6207F10C0319460C4802F0EC
:1027A000C5FC0346002B01D000F046F800237B60F7
:1027B0000023BB603B1D1946054803F029F9034679
:1027C000002B01D000F038F800BF3037BD4680BD87
:1027D0002C0200200004004080B400AF044B1B68B2
:1027E0005B6A1BB21846BD465DF8047B704700BFAC
:1027F000E401002080B400AF044B1B685B6A1BB28D
:102800001846BD465DF8047B704700BF2C020020CF
:1028100080B400AF064B1B6800225A62054B1B6850
:1028200000225A6200BFBD465DF8047B704700BFBE
:10283000E40100202C02002080B400AF72B600BF7B
:1028400000BFFDE780B483B000AF00237B60104B76
:102850005B6C0F4A43F4804353640D4B5B6C03F491
:1028600080437B607B6800233B60094B1B6C084AFC
:1028700043F080531364064B1B6C03F080533B60A2
:102880003B6800BF0C37BD465DF8047B704700BF56
:102890000038024080B487B000AF78607B681B6866
:1028A0001F4A93420ED100237B611E4B1B6C1D4AB5
:1028B00043F0040313641B4B1B6C03F004037B61A4
:1028C0007B6926E07B681B68174A93420ED1002380
:1028D0003B61144B5B6C134A43F480335364114BDC
:1028E0005B6C03F480333B613B6912E07B681B68DF
:1028F0000E4A93420DD10023FB600A4B1B6C094A20
:1029000043F040031364074B1B6C03F04003FB6070
:10291000FB6800BF1C37BD465DF8047B704700BFF5
:10292000000800400038024000400140001800400C
:1029300080B58CB000AF786007F11C0300221A60EC
:102940005A609A60DA601A617B681B68B3F1804F45
:1029500045D10023BB613C4B1B6C3B4A43F0010358
:102960001364394B1B6C03F00103BB61BB6900238B
:102970007B61354B1B6B344A43F001031363324BCD
:102980001B6B03F001037B617B6900233B612E4BD2
:102990001B6B2D4A43F0020313632B4B1B6B03F09D
:1029A00002033B613B694FF40043FB6102233B623E
:1029B00001237B620023BB620123FB6207F11C033E
:1029C0001946224800F050FC0823FB610123FB62FA
:1029D00007F11C0319461E4800F046FC30E07B68F6
:1029E0001B681C4A93422BD10023FB60164B1B6CC7
:1029F000154A43F002031364134B1B6C03F00203EC
:102A0000FB60FB680023BB600F4B1B6B0E4A43F05F
:102A1000020313630C4B1B6B03F00203BB60BB6828
:102A20003023FB6102233B6201237B620023BB62F4
:102A30000223FB6207F11C031946054800F014FC51
:102A400000BF3037BD4680BD003802400000024064
:102A5000000402400004004080B58AB000AF7860F6
:102A600007F1140300221A605A609A60DA601A6152
:102A70007B681B68374A93421FD100233B61364B6A
:102A80001B6B354A43F002031363334B1B6B03F09C
:102A900002033B613B694FF440737B610223BB61DE
:102AA0000023FB6100233B6202237B6207F11403D6
:102AB00019462A4800F0D8FB47E07B681B68284A83
:102AC00093421ED10023FB60234B1B6B224A43F031
:102AD00010031363204B1B6B03F01003FB60FB68B8
:102AE00060237B610223BB610023FB6100233B6207
:102AF00003237B6207F1140319461A4800F0B4FB64
:102B000023E07B681B68184A93421ED10023BB60F8
:102B1000114B1B6B104A43F0020313630E4B1B6BEC
:102B200003F00203BB60BB684FF400437B610223E8
:102B3000BB610023FB6100233B6209237B6207F139
:102B400014031946054800F08FFB00BF2837BD4627
:102B500080BD00BF00080040003802400004024071
:102B600000400140001002400018004080B58AB0CB
:102B700000AF786007F1140300221A605A609A606F
:102B8000DA601A617B681B681D4A934234D10023C6
:102B90003B611C4B1B6C1B4A43F480231364194B91
:102BA0001B6C03F480233B613B690023FB60154BE6
:102BB0001B6B144A43F008031363124B1B6B03F0A7
:102BC0000803FB60FB684FF440737B610223BB6129
:102BD0000023FB6103233B6207237B6207F114039D
:102BE0001946094800F040FB00220021272000F090
:102BF00072FA272000F08BFA00BF2837BD4680BD4F
:102C00000048004000380240000C024080B58AB005
:102C100000AF786007F1140300221A605A609A60CE
:102C2000DA601A617B681B68194A93422CD1002331
:102C30003B61184B1B6B174A43F002031363154BA0
:102C40001B6B03F002033B613B690023FB60114BEC
:102C50001B6C104A43F4800313640E4B1B6C03F48B
:102C60008003FB60FB684FF440637B611223BB6110
:102C70000123FB6103233B6204237B6207F11403FE
:102C80001946054800F0F0FA00BF2837BD4680BD60
:102C900000580040003802400004024080B400AFF9
:102CA00000BFFDE780B400AF00BFFDE780B400AF18
:102CB00000BFFDE780B400AF00BFFDE780B400AF08
:102CC00000BFFDE780B400AF00BFBD465DF8047BE8
:102CD000704780B400AF00BFBD465DF8047B70470D
:102CE00080B400AF00BFBD465DF8047B704780B57F
:102CF00000AF00F0D1F800BF80BD000080B500AF8C
:102D0000024803F001F800BF80BD00BFA00300200F
:102D100080B586B000AF7860144A154BD31A7B613A
:102D20007B693B61134B1B68002B02D1114B124A8C
:102D30001A60104B1A687B6813443A699A4207D2AA
:102D400004F026F803460C221A604FF0FF3309E026
:102D5000084B1B68FB60074B1A687B681344054AE5
:102D60001360FB6818461837BD4680BD000002207E
:102D700000040000240400207805002080B400AF87
:102D8000064BD3F88830054A43F47003C2F8883004
:102D900000BFBD465DF8047B704700BF00ED00E05A
:102DA000DFF834D0FFF7EAFF0C480D490D4A002345
:102DB00002E0D458C4500433C4188C42F9D30A4AF0
:102DC0000A4C002301E013600432A242FBD303F05B
:102DD000E5FFFDF7F3FB7047000002200000002034
:102DE000C8010020EC780008C8010020740500200C
:102DF000FEE7000080B500AF0E4B1B680D4A43F4A0
:102E0000007313600B4B1B680A4A43F48063136022
:102E1000084B1B68074A43F480731360032000F0DB
:102E20004FF90F2000F008F8FFF70CFD00231846BB
:102E300080BD00BF003C024080B582B000AF78602A
:102E4000124B1A68124B1B7819464FF47A73B3FB76
:102E5000F1F3B2FBF3F3184600F067F90346002BD9
:102E600001D001230EE07B680F2B0AD8002279687D
:102E70004FF0FF3000F02FF9064A7B681360002303
:102E800000E0012318460837BD4680BD6C010020D4
:102E9000740100207001002080B400AF064B1B7845
:102EA0001A46064B1B681344044A136000BFBD4614
:102EB0005DF8047B704700BF7401002028040020E7
:102EC00080B400AF034B1B681846BD465DF8047B19
:102ED000704700BF2804002080B584B000AF786040
:102EE000FFF7EEFFB8607B68FB60FB68B3F1FF3F64
:102EF00005D00A4B1B781A46FB681344FB6000BFE1
:102F0000FFF7DEFF0246BB68D31AFA689A42F7D889
:102F100000BF00BF1037BD4680BD00BF7401002058
:102F200080B485B000AF78607B6803F00703FB6076
:102F30000C4BDB68BB60BA684FF6FF031340BB6005
:102F4000FB681A02BB68134343F0BF6343F40033CA
:102F5000BB60044ABB68D36000BF1437BD465DF850
:102F6000047B704700ED00E080B400AF044BDB68E9
:102F70001B0A03F007031846BD465DF8047B704743
:102F800000ED00E080B483B000AF0346FB7197F919
:102F90000730002B0BDBFB7903F01F02074997F981
:102FA00007305B09012000FA02F241F8232000BF3C
:102FB0000C37BD465DF8047B704700BF00E100E0C0
:102FC00080B483B000AF03463960FB7197F90730D6
:102FD000002B0ADB3B68DAB20C4997F90730120183
:102FE000D2B20B4483F800230AE03B68DAB2084906
:102FF000FB7903F00F03043B1201D2B20B441A76A3
:1030000000BF0C37BD465DF8047B704700E100E06F
:1030100000ED00E080B489B000AFF860B9607A607C
:10302000FB6803F00703FB61FB69C3F10703042B93
:1030300028BF0423BB61FB690433062B02D9FB695B
:10304000033B00E000237B614FF0FF32BB6902FAD3
:1030500003F3DA43BB681A407B699A404FF0FF31B3
:103060007B6901FA03F3D9437B680B40134318468D
:103070002437BD465DF8047B7047000080B582B000
:1030800000AF78607B68013BB3F1807F01D30123FF
:103090000FE00A4A7B68013B53600F214FF0FF307D
:1030A000FFF78EFF054B00229A60044B07221A603F
:1030B000002318460837BD4680BD00BF10E000E081
:1030C00080B582B000AF78607868FFF729FF00BF55
:1030D0000837BD4680BD80B586B000AF0346B960F5
:1030E0007A60FB7300237B61FFF73EFF78617A68AB
:1030F000B9687869FFF78EFF024697F90F301146DD
:103100001846FFF75DFF00BF1837BD4680BD80B58C
:1031100082B000AF0346FB7197F907301846FFF7FE
:1031200031FF00BF0837BD4680BD80B582B000AF1B
:1031300078607868FFF7A2FF034618460837BD4657
:1031400080BD80B584B000AF78607B689B6DFB600C
:10315000FFF7B6FEB8607B6893F83530DBB2022B20
:1031600008D07B6880225A657B68002283F834206F
:10317000012352E07B681B681A687B681B6822F099
:1031800016021A607B681B685A697B681B6822F00C
:1031900080025A617B681B6C002B03D17B689B6C9F
:1031A000002B07D07B681B681A687B681B6822F0BD
:1031B00008021A607B681B681A687B681B6822F02B
:1031C00001021A6013E0FFF77BFE0246BB68D31AC8
:1031D000052B0CD97B6820225A657B68032283F873
:1031E00035207B68002283F83420032315E07B68B8
:1031F0001B681B6803F00103002BE4D17B68DB6DC7
:103200003F229A40FB689A607B68012283F8352050
:103210007B68002283F83420002318461037BD460F
:1032200080BD80B483B000AF78607B6893F83530A0
:10323000DBB2022B04D07B6880225A6501230CE0AC
:103240007B68052283F835207B681B681A687B68D9
:103250001B6822F001021A60002318460C37BD4695
:103260005DF8047B7047000080B489B000AF7860DF
:10327000396000237B6100233B610023BB61002395
:10328000FB616BE10122FB6902FA03F37B613B689E
:103290001B687A6913403B613A697B699A4240F046
:1032A0005A813B685B6803F00303012B05D03B6840
:1032B0005B6803F00303022B30D17B689B68BB6122
:1032C000FB695B00032202FA03F3DB43BA69134094
:1032D000BB613B68DA68FB695B0002FA03F3BA6919
:1032E0001343BB617B68BA699A607B685B68BB61AA
:1032F0000122FB6902FA03F3DB43BA691340BB61A5
:103300003B685B681B0903F00102FB6902FA03F3E7
:10331000BA691343BB617B68BA695A603B685B68F2
:1033200003F00303032B17D07B68DB68BB61FB69E9
:103330005B00032202FA03F3DB43BA691340BB616B
:103340003B689A68FB695B0002FA03F3BA691343AE
:10335000BB617B68BA69DA603B685B6803F00303B2
:10336000022B23D1FB69DA087B68083253F822303C
:10337000BB61FB6903F007039B000F2202FA03F312
:10338000DB43BA691340BB613B681A69FB6903F010
:1033900007039B0002FA03F3BA691343BB61FB699D
:1033A000DA087B680832B96943F822107B681B6829
:1033B000BB61FB695B00032202FA03F3DB43BA69DA
:1033C0001340BB613B685B6803F00302FB695B0071
:1033D00002FA03F3BA691343BB617B68BA691A60E6
:1033E0003B685B6803F44033002B00F0B48000239B
:1033F000FB60604B5B6C5F4A43F4804353645D4BFE
:103400005B6C03F48043FB60FB685B4AFB699B08D1
:10341000023352F82330BB61FB6903F003039B00C6
:103420000F2202FA03F3DB43BA691340BB617B68E6
:10343000524A93422BD07B68514A934225D07B68F5
:10344000504A93421FD07B684F4A934219D07B6801
:103450004E4A934213D07B684D4A93420DD07B680D
:103460004C4A934207D07B684B4A934201D10723D1
:103470000EE008230CE006230AE0052308E00423FD
:1034800006E0032304E0022302E0012300E000231E
:10349000FA6902F0030292009340BA691343BB61D8
:1034A0003549FB699B080233BA6941F823203B4B3D
:1034B0009B68BB613B69DB43BA691340BB613B68F6
:1034C0005B6803F48013002B03D0BA693B69134394
:1034D000BB61324ABB699360304BDB68BB613B69BF
:1034E000DB43BA691340BB613B685B6803F40013BC
:1034F000002B03D0BA693B691343BB61274ABB6900
:10350000D360264B5B68BB613B69DB43BA69134000
:10351000BB613B685B6803F40033002B03D0BA69DE
:103520003B691343BB611D4ABB6953601B4B1B685E
:10353000BB613B69DB43BA691340BB613B685B68B5
:1035400003F48033002B03D0BA693B691343BB619A
:10355000124ABB691360FB690133FB61FB690F2BE6
:103560007FF690AE00BF00BF2437BD465DF8047BF8
:10357000704700BF003802400038014000000240A0
:103580000004024000080240000C0240001002400B
:103590000014024000180240001C0240003C0140A0
:1035A00080B483B000AF78600B467B8013467B709D
:1035B0007B78002B03D07A887B689A6103E07B8854
:1035C0001A047B689A6100BF0C37BD465DF8047B26
:1035D000704780B485B000AF78600B467B807B6815
:1035E0005B69FB607A88FB6813401A04FB68D94367
:1035F0007B880B401A437B689A6100BF1437BD4635
:103600005DF8047B7047000080B584B000AF78603F
:103610007B68002B01D101232BE17B6893F83D30BF
:10362000DBB2002B06D17B68002283F83C2078684F
:10363000FFF7ECFA7B68242283F83D207B681B6847
:103640001A687B681B6822F001021A607B681B689D
:103650001A687B681B6842F400421A607B681B682A
:103660001A687B681B6822F400421A6001F01EFC95
:10367000F8607B685B68814A934207D8FB68804AA0
:10368000934294BF01230023DBB206E0FB687D4A2E
:10369000934294BF01230023DBB2002B01D001230E
:1036A000E7E0FB68784AA2FB03239B0CBB607B68C6
:1036B0001B685B6823F03F017B681B68BA680A439C
:1036C0005A607B681B681B6A23F03F017B685B685C
:1036D0006A4A934202D8BB68013309E0BB684FF4E1
:1036E000967202FB03F3694AA2FB03239B09013391
:1036F0007A6812680B4313627B681B68DB6923F4EA
:103700004F4222F0FF027B685B685C498B4219D80C
:10371000FB68591E7B685B685B00B1FBF3F3591CC7
:1037200040F6FC730B40002B0AD0FB68591E7B68E7
:103730005B685B00B1FBF3F30133C3F30B0351E0B0
:1037400004234FE07B689B68002B11D1FB68581E57
:103750007B6859680B465B000B44B0FBF3F3013305
:10376000C3F30B03002B0CBF01230023DBB212E0D9
:10377000FB68581E7B6859680B469B000B449900F8
:103780000B44B0FBF3F30133C3F30B03002B0CBF6B
:1037900001230023DBB2002B01D0012322E07B6850
:1037A0009B68002B0ED1FB68581E7B6859680B463E
:1037B0005B000B44B0FBF3F30133C3F30B0343F49F
:1037C00000430FE0FB68581E7B6859680B469B005E
:1037D0000B4499000B44B0FBF3F30133C3F30B0329
:1037E00043F44043796809681343CB617B681B68E5
:1037F0001B6823F0C0017B68DA697B681B6A1A4387
:103800007B681B680A431A607B681B689B6823F40B
:10381000034323F0FF037A6811697A68D268114381
:103820007A6812680B4393607B681B68DB6823F03F
:10383000FF017B685A697B689B691A437B681B6838
:103840000A43DA607B681B681A687B681B6842F071
:1038500001021A607B6800221A647B68202283F8C8
:103860003D207B6800221A637B68002283F83E209B
:10387000002318461037BD4680BD00BFA08601005A
:103880007F841E00FF083D0083DE1B43D34D621082
:1038900080B588B002AFF860084611461A46034664
:1038A0007B810B463B811346FB80FFF709FB786168
:1038B000FB6893F83D30DBB2202B40F0D9807B6968
:1038C0000093192301226D49F86800F08BFC034630
:1038D000002B01D00223CCE0FB6893F83C30012B95
:1038E00001D10223C5E0FB68012283F83C20FB687C
:1038F0001B681B6803F00103012B07D0FB681B68E2
:103900001A68FB681B6842F001021A60FB681B68BA
:103910001A68FB681B6822F400621A60FB682122A7
:1039200083F83D20FB68402283F83E20FB6800229C
:103930001A64FB683A6A5A62FB68BA8C5A85FB685B
:103940005B8D9AB2FB681A85FB684D4ADA62F8888B
:103950003A8979897B690193BB6A00930346F868C9
:1039600000F0C2FA0346002B52D0012381E07A69AD
:10397000B96AF86800F050FD0346002B0DD0FB68D3
:103980001B6C042B07D1FB681B681A68FB681B685B
:1039900042F400721A6001236BE0FB685B6A1A78DC
:1039A000FB681B681A61FB685B6A5A1CFB685A62F9
:1039B000FB681B8D013B9AB2FB681A85FB685B8D27
:1039C0009BB2013B9AB2FB685A85FB681B685B6936
:1039D00003F00403042B1BD1FB681B8D002B17D0B5
:1039E000FB685B6A1A78FB681B681A61FB685B6A94
:1039F0005A1CFB685A62FB681B8D013B9AB2FB683C
:103A00001A85FB685B8D9BB2013B9AB2FB685A85B5
:103A1000FB681B8D002BAAD17A69B96AF86800F09F
:103A200043FD0346002B0DD0FB681B6C042B07D114
:103A3000FB681B681A68FB681B6842F400721A6016
:103A4000012316E0FB681B681A68FB681B6842F4D8
:103A500000721A60FB68202283F83D20FB68002278
:103A600083F83E20FB68002283F83C20002300E01E
:103A7000022318461837BD4680BD00BF0200100063
:103A80000000FFFF80B58CB002AFF8600846114619
:103A90001A4603467B810B463B811346FB80FFF7AA
:103AA0000FFA7862FB6893F83D30DBB2202B40F0D0
:103AB00014827B6A0093192301227B49F86800F085
:103AC00091FB0346002B01D0022307E2FB6893F829
:103AD0003C30012B01D1022300E2FB68012283F874
:103AE0003C20FB681B681B6803F00103012B07D017
:103AF000FB681B681A68FB681B6842F001021A60C9
:103B0000FB681B681A68FB681B6822F400621A6075
:103B1000FB68222283F83D20FB68402283F83E2088
:103B2000FB6800221A64FB683A6B5A62FB68BA8E23
:103B30005A85FB685B8D9AB2FB681A85FB685B4A05
:103B4000DA62F8883A8979897B6A0193BB6B0093C2
:103B50000346F86800F05EFA0346002B01D001230B
:103B6000BCE1FB681B8D002B13D100233B62FB687B
:103B70001B685B693B62FB681B689B693B623B6A35
:103B8000FB681B681A68FB681B6842F400721A60C5
:103B900090E1FB681B8D012B1BD1FB681B681A6829
:103BA000FB681B6822F480621A600023FB61FB68DB
:103BB0001B685B69FB61FB681B689B69FB61FB69B8
:103BC000FB681B681A68FB681B6842F400721A6085
:103BD00070E1FB681B8D022B1BD1FB681B681A6808
:103BE000FB681B6822F480621A60FB681B681A6815
:103BF000FB681B6842F400621A600023BB61FB682B
:103C00001B685B69BB61FB681B689B69BB61BB6927
:103C100050E100237B61FB681B685B697B61FB688B
:103C20001B689B697B617B6944E1FB681B8D032BEF
:103C300000F2F180FB681B8D012B23D17A6AB96BEE
:103C4000F86800F079FC0346002B01D0012345E120
:103C5000FB681B681A69FB685B6AD2B21A70FB6862
:103C60005B6A5A1CFB685A62FB681B8D013B9AB267
:103C7000FB681A85FB685B8D9BB2013B9AB2FB68BF
:103C80005A8517E1FB681B8D022B4ED17B6A00938E
:103C9000BB6B00220649F86800F0A4FA0346002B2B
:103CA00008D001231AE100BF020010000000FFFF4E
:103CB00004000100FB681B681A68FB681B6842F47B
:103CC00000721A60FB681B681A69FB685B6AD2B2F3
:103CD0001A70FB685B6A5A1CFB685A62FB681B8D92
:103CE000013B9AB2FB681A85FB685B8D9BB2013B76
:103CF0009AB2FB685A85FB681B681A69FB685B6AA5
:103D0000D2B21A70FB685B6A5A1CFB685A62FB6885
:103D10001B8D013B9AB2FB681A85FB685B8D9BB2D9
:103D2000013B9AB2FB685A85C4E07B6A0093BB6B87
:103D300000226C49F86800F055FA0346002B01D0C8
:103D40000123CBE0FB681B681A68FB681B6822F440
:103D500080621A60FB681B681A69FB685B6AD2B2F2
:103D60001A70FB685B6A5A1CFB685A62FB681B8D01
:103D7000013B9AB2FB681A85FB685B8D9BB2013BE5
:103D80009AB2FB685A857B6A0093BB6B0022554947
:103D9000F86800F027FA0346002B01D001239DE0CC
:103DA000FB681B681A68FB681B6842F400721A60A3
:103DB000FB681B681A69FB685B6AD2B21A70FB6801
:103DC0005B6A5A1CFB685A62FB681B8D013B9AB206
:103DD000FB681A85FB685B8D9BB2013B9AB2FB685E
:103DE0005A85FB681B681A69FB685B6AD2B21A7055
:103DF000FB685B6A5A1CFB685A62FB681B8D013BBF
:103E00009AB2FB681A85FB685B8D9BB2013B9AB244
:103E1000FB685A854EE07A6AB96BF86800F08CFB53
:103E20000346002B01D0012358E0FB681B681A6988
:103E3000FB685B6AD2B21A70FB685B6A5A1CFB684B
:103E40005A62FB681B8D013B9AB2FB681A85FB68BE
:103E50005B8D9BB2013B9AB2FB685A85FB681B687D
:103E60005B6903F00403042B24D1FB681B8D032B37
:103E700007D1FB681B681A68FB681B6822F4806224
:103E80001A60FB681B681A69FB685B6AD2B21A7019
:103E9000FB685B6A5A1CFB685A62FB681B8D013B1E
:103EA0009AB2FB681A85FB685B8D9BB2013B9AB2A4
:103EB000FB685A85FB681B8D002B7FF4B6AEFB6850
:103EC000202283F83D20FB68002283F83E20FB6817
:103ED000002283F83C20002300E002231846283704
:103EE000BD4680BD0400010080B588B002AFF86017
:103EF000084611461A4603467B810B463B81134612
:103F0000FB80FB681B681A68FB681B6842F48072C0
:103F10001A607B6A00933B6A00224FF00111F86837
:103F200000F060F90346002B0DD0FB681B681B688E
:103F300003F48073B3F5807F03D1FB684FF4007204
:103F40001A6403235FE07B89DBB21A46FB681B68B7
:103F500002F0FE021A617B6A3A6A2D49F86800F0A5
:103F6000BBF90346002B01D001234CE000237B6109
:103F7000FB681B685B697B61FB681B689B697B61F5
:103F80007B697A6A396AF86800F046FA0346002BC2
:103F90000DD0FB681B6C042B07D1FB681B681A68EB
:103FA000FB681B6842F400721A6001232BE0FB8857
:103FB000012B05D13B89DAB2FB681B681A6121E04D
:103FC0003B891B0A9BB2DAB2FB681B681A617A6AEA
:103FD000396AF86800F020FA0346002B0DD0FB6820
:103FE0001B6C042B07D1FB681B681A68FB681B68F5
:103FF00042F400721A60012305E03B89DAB2FB68E3
:104000001B681A61002318461837BD4680BD00BFE3
:104010000200010080B588B002AFF8600846114682
:104020001A4603467B810B463B811346FB80FB68A7
:104030001B681A68FB681B6842F480621A60FB68A0
:104040001B681A68FB681B6842F480721A607B6AFE
:1040500000933B6A00224FF00111F86800F0C2F8AB
:104060000346002B0DD0FB681B681B6803F48073AC
:10407000B3F5807F03D1FB684FF400721A64032309
:10408000AAE07B89DBB21A46FB681B6802F0FE02DD
:104090001A617B6A3A6A5249F86800F01DF90346D2
:1040A000002B01D0012397E000237B61FB681B6894
:1040B0005B697B61FB681B689B697B617B697A6AD2
:1040C000396AF86800F0A8F90346002B0DD0FB68A8
:1040D0001B6C042B07D1FB681B681A68FB681B6804
:1040E00042F400721A60012376E0FB88012B05D1AF
:1040F0003B89DAB2FB681B681A6121E03B891B0A25
:104100009BB2DAB2FB681B681A617A6A396AF8688E
:1041100000F082F90346002B0DD0FB681B6C042BCA
:1041200007D1FB681B681A68FB681B6842F40072C1
:104130001A60012350E03B89DAB2FB681B681A6100
:104140007A6A396AF86800F067F90346002B0DD0E7
:10415000FB681B6C042B07D1FB681B681A68FB68A3
:104160001B6842F400721A60012335E0FB681B688B
:104170001A68FB681B6842F480721A607B6A0093BD
:104180003B6A00224FF00111F86800F02BF803465B
:10419000002B0DD0FB681B681B6803F48073B3F51C
:1041A000807F03D1FB684FF400721A64032313E08D
:1041B0007B89DBB243F00103DAB2FB681B681A614A
:1041C0007B6A3A6A0649F86800F086F80346002BD5
:1041D00001D0012300E0002318461837BD4680BDFA
:1041E0000200010080B584B000AFF860B9603B60A8
:1041F0001346FB7148E03B68B3F1FF3F44D0FEF744
:104200005FFE0246BB69D31A3A689A4202D33B6802
:10421000002B39D1BB681B0CDBB2012B0DD1FB6825
:104220001B685B69DA43BB6813409BB2002B0CBF71
:1042300001230023DBB21A460CE0FB681B689B6974
:10424000DA43BB6813409BB2002B0CBF0123002351
:10425000DBB21A46FB799A4216D1FB6800221A6338
:10426000FB68202283F83D20FB68002283F83E2073
:10427000FB681B6C43F02002FB681A64FB68002299
:1042800083F83C20012323E0BB681B0CDBB2012B2D
:104290000DD1FB681B685B69DA43BB6813409BB2B6
:1042A000002B0CBF01230023DBB21A460CE0FB6895
:1042B0001B689B69DA43BB6813409BB2002B0CBFA1
:1042C00001230023DBB21A46FB799A4293D00023E4
:1042D00018461037BD4680BD80B584B000AFF86089
:1042E000B9607A603B6071E0FB681B685B6903F44E
:1042F0008063B3F5806F23D1FB681B681A68FB6885
:104300001B6842F400721A60FB681B686FF48062DD
:104310005A61FB6800221A63FB68202283F83D2063
:10432000FB68002283F83E20FB681B6C43F004020C
:10433000FB681A64FB68002283F83C20012367E0D5
:104340007B68B3F1FF3F41D0FEF7BAFD02463B6800
:10435000D31A7A689A4202D37B68002B36D1BB68A5
:104360001B0CDBB2012B0CD1FB681B685B69DA43C9
:10437000BB6813409BB2002B14BF01230023DBB2A8
:104380000BE0FB681B689B69DA43BB6813409BB278
:10439000002B14BF01230023DBB2002B16D0FB68D7
:1043A00000221A63FB68202283F83D20FB6800226C
:1043B00083F83E20FB681B6C43F02002FB681A6404
:1043C000FB68002283F83C20012321E0BB681B0C22
:1043D000DBB2012B0CD1FB681B685B69DA43BB685D
:1043E00013409BB2002B14BF01230023DBB20BE070
:1043F000FB681B689B69DA43BB6813409BB2002BC8
:1044000014BF01230023DBB2002B7FF46DAF002328
:1044100018461037BD4680BD80B584B000AFF86047
:10442000B9607A6034E0F86800F0E3F80346002BE6
:1044300001D0012334E0BB68B3F1FF3F28D0FEF781
:104440003FFD02467B68D31ABA689A4202D3BB6822
:10445000002B1DD1FB681B685B6903F08003802B78
:1044600016D0FB6800221A63FB68202283F83D20E7
:10447000FB68002283F83E20FB681B6C43F020029F
:10448000FB681A64FB68002283F83C20012307E0E4
:10449000FB681B685B6903F08003802BC3D100239A
:1044A00018461037BD4680BD80B584B000AFF860B7
:1044B000B9607A6034E0F86800F09BF80346002B9E
:1044C00001D0012334E0BB68B3F1FF3F28D0FEF7F1
:1044D000F7FC02467B68D31ABA689A4202D3BB68DB
:1044E000002B1DD1FB681B685B6903F00403042BE0
:1044F00016D0FB6800221A63FB68202283F83D2057
:10450000FB68002283F83E20FB681B6C43F020020E
:10451000FB681A64FB68002283F83C20012307E053
:10452000FB681B685B6903F00403042BC3D1002301
:1045300018461037BD4680BD80B584B000AFF86026
:10454000B9607A6049E0FB681B685B6903F010039F
:10455000102B19D1FB681B686FF010025A61FB68C1
:1045600000221A63FB68202283F83D20FB680022AA
:1045700083F83E20FB681A6CFB681A64FB68002213
:1045800083F83C20012330E0FEF79AFC02467B686A
:10459000D31ABA689A4202D3BB68002B1DD1FB68BC
:1045A0001B685B6903F04003402B16D0FB680022B8
:1045B0001A63FB68202283F83D20FB68002283F801
:1045C0003E20FB681B6C43F02002FB681A64FB680A
:1045D000002283F83C20012307E0FB681B685B692D
:1045E00003F04003402BAED1002318461037BD46E0
:1045F00080BD80B483B000AF78607B681B685B6966
:1046000003F48063B3F5806F1BD17B681B686FF484
:1046100080625A617B6800221A637B68202283F8DB
:104620003D207B68002283F83E207B681B6C43F0B2
:1046300004027B681A647B68002283F83C20012313
:1046400000E0002318460C37BD465DF8047B704738
:1046500080B586B000AF78607B68002B01D1012364
:1046600067E27B681B6803F00103002B75D0884B61
:104670009B6803F00C03042B0CD0854B9B6803F064
:104680000C03082B12D1824B5B6803F48003B3F553
:10469000800F0BD17E4B1B6803F40033002B5BD0E3
:1046A0007B685B68002B57D1012342E27B685B6823
:1046B000B3F5803F06D1764B1B68754A43F48033CF
:1046C00013601DE07B685B68B3F5A02F0CD1704BC5
:1046D0001B686F4A43F4802313606D4B1B686C4A60
:1046E00043F4803313600BE0694B1B68684A23F482
:1046F00080331360664B1B68654A23F48023136084
:104700007B685B68002B13D0FEF7DAFB386108E0AA
:10471000FEF7D6FB02463B69D31A642B01D903236B
:1047200007E25B4B1B6803F40033002BF0D014E06E
:10473000FEF7C6FB386108E0FEF7C2FB02463B69A4
:10474000D31A642B01D90323F3E1514B1B6803F403
:104750000033002BF0D100E000BF7B681B6803F042
:104760000203002B63D04A4B9B6803F00C03002B21
:104770000BD0474B9B6803F00C03082B1CD1444B18
:104780005B6803F48003002B16D1414B1B6803F0D8
:104790000203002B05D07B68DB68012B01D00123CD
:1047A000C7E13B4B1B6823F0F8027B681B69DB0009
:1047B000374913430B603AE07B68DB68002B20D05D
:1047C000344B01221A60FEF77BFB386108E0FEF7EC
:1047D00077FB02463B69D31A022B01D90323A8E1D8
:1047E0002B4B1B6803F00203002BF0D0284B1B68F7
:1047F00023F0F8027B681B69DB00254913430B603B
:1048000015E0244B00221A60FEF75AFB386108E0DD
:10481000FEF756FB02463B69D31A022B01D903234C
:1048200087E11B4B1B6803F00203002BF0D17B6870
:104830001B6803F00803002B36D07B685B69002BF4
:1048400016D0154B01221A60FEF73AFB386108E0DA
:10485000FEF736FB02463B69D31A022B01D903232C
:1048600067E10B4B5B6F03F00203002BF0D01BE002
:10487000094B00221A60FEF723FB38610EE0FEF7B9
:104880001FFB02463B69D31A022B07D9032350E1D1
:104890000038024000004742800E4742884B5B6F61
:1048A00003F00203002BEAD17B681B6803F00403CA
:1048B000002B00F097800023FB75814B1B6C03F0ED
:1048C0008053002B0FD10023BB607D4B1B6C7C4AB7
:1048D00043F0805313647A4B1B6C03F08053BB602E
:1048E000BB680123FB75774B1B6803F48073002BB7
:1048F00018D1744B1B68734A43F480731360FEF73E
:10490000DFFA386108E0FEF7DBFA02463B69D31AAA
:10491000022B01D903230CE16A4B1B6803F480735B
:10492000002BF0D07B689B68012B06D1644B1B6F7A
:10493000634A43F0010313671CE07B689B68052B07
:104940000CD15F4B1B6F5E4A43F0040313675C4B53
:104950001B6F5B4A43F0010313670BE0584B1B6F5F
:10496000574A23F001031367554B1B6F544A23F03A
:10497000040313677B689B68002B15D0FEF7A0FA31
:1049800038610AE0FEF79CFA02463B69D31A41F20D
:104990008832934201D90323CBE0494B1B6F03F0CC
:1049A0000203002BEED014E0FEF78AFA38610AE029
:1049B000FEF786FA02463B69D31A41F288329342E7
:1049C00001D90323B5E03E4B1B6F03F00203002B1C
:1049D000EED1FB7D012B05D1394B1B6C384A23F0FE
:1049E000805313647B689B69002B00F0A180344BDB
:1049F0009B6803F00C03082B5CD07B689B69022B3F
:104A000041D1314B00221A60FEF75AFA386108E0B2
:104A1000FEF756FA02463B69D31A022B01D903234B
:104A200087E0274B1B6803F00073002BF0D17B68F5
:104A3000DA697B681B6A1A437B685B6A9B011A43CD
:104A40007B689B6A5B08013B1B041A437B68DB6A3B
:104A50001B061B4913434B601B4B01221A60FEF7D8
:104A60002FFA386108E0FEF72BFA02463B69D31AA9
:104A7000022B01D903235CE0114B1B6803F0007388
:104A8000002BF0D054E0104B00221A60FEF718FA09
:104A9000386108E0FEF714FA02463B69D31A022B8C
:104AA00001D9032345E0064B1B6803F00073002B7C
:104AB000F0D13DE07B689B69012B07D1012338E0F1
:104AC0000038024000700040600047421B4B5B68AA
:104AD000FB607B689B69012B28D0FB6803F4800294
:104AE0007B68DB699A4221D1FB6803F03F027B6857
:104AF0001B6A9A421AD1FA6847F6C07313407A6863
:104B0000526A9201934211D1FB6803F440327B68F0
:104B10009B6A5B08013B1B049A4207D1FB6803F0C8
:104B200070627B68DB6A1B069A4201D0012300E0B9
:104B3000002318461837BD4680BD00BF003802402C
:104B400080B584B000AF786039607B68002B01D1FC
:104B50000123CCE0684B1B6803F007033A689A42D4
:104B60000CD9654B3A68D2B21A70634B1B6803F0DC
:104B700007033A689A4201D00123B8E07B681B68BA
:104B800003F00203002B20D07B681B6803F00403B2
:104B9000002B05D0594B9B68584A43F4E05393606F
:104BA0007B681B6803F00803002B05D0534B9B6800
:104BB000524A43F460439360504B9B6823F0F002E9
:104BC0007B689B684D4913438B607B681B6803F0CF
:104BD0000103002B44D07B685B68012B07D1474B56
:104BE0001B6803F40033002B19D101237FE07B689D
:104BF0005B68022B03D07B685B68032B07D13F4BBC
:104C00001B6803F00073002B09D101236FE03B4BBD
:104C10001B6803F00203002B01D1012367E0374B2F
:104C20009B6823F003027B685B68344913438B6005
:104C3000FEF746F9F8600AE0FEF742F90246FB6823
:104C4000D31A41F28832934201D903234FE02B4B10
:104C50009B6803F00C027B685B689B009A42EBD177
:104C6000254B1B6803F007033A689A420CD2224B8B
:104C70003A68D2B21A70204B1B6803F007033A68F7
:104C80009A4201D0012332E07B681B6803F00403E1
:104C9000002B08D0194B9B6823F4E0527B68DB683B
:104CA000164913438B607B681B6803F00803002BD5
:104CB00009D0124B9B6823F460427B681B69DB00C0
:104CC0000E4913438B6000F021F802460B4B9B68A2
:104CD0001B0903F00F030A49CB5C22FA03F3094ACC
:104CE0001360094B1B681846FEF7A6F80023184608
:104CF0001037BD4680BD00BF003C02400038024076
:104D0000907700086C010020700100202DE9B04F61
:104D100090B000AF00237B630023FB6300233B6361
:104D20000023BB63584B9B6803F00C03082B0DD08A
:104D3000082B00F2A080002B02D0042B03D09AE0B5
:104D4000524BBB639AE0524BBB6397E04E4B5B68A0
:104D500003F03F037B634C4B5B6803F48003002B41
:104D600027D0494B5B689B0900223B627A623B6A11
:104D7000C3F308000021464B03FB01F2002300FBB4
:104D800003F31344424AA0FB0221F962BA62FA6AB1
:104D90001344FB627B6B0022BB61FA61D7E90623F7
:104DA000D7E90A01FBF774FA02460B461346FB6388
:104DB00053E0354B5B689B0900223B617A613B699C
:104DC000C3F3080A4FF0000B52465B464FF0000059
:104DD0004FF00001590141EAD261500102460B46F1
:104DE000B2EB0A0863EB0B094FF000024FF000032F
:104DF0004FEA891343EA98634FEA8812B2EB08043A
:104E000063EB09054FF000024FF00003EB0043EAAB
:104E10005473E20014461D4614EB0A033B6045EB55
:104E20000B037B604FF000024FF00003D7E9004511
:104E300029468B02214643EA915321468A021046B5
:104E400019467B6B0022BB60FA60D7E90223FBF7AF
:104E50001FFA02460B461346FB630B4B5B681B0CA9
:104E600003F0030301335B003B63FA6B3B6BB2FB64
:104E7000F3F3BB6302E0054BBB6300BFBB6B18469B
:104E80004037BD46BDE8B08F003802400024F40032
:104E900040787D0180B400AF034B1B681846BD46C7
:104EA0005DF8047B704700BF6C01002080B500AF47
:104EB000FFF7F0FF0246054B9B689B0A03F00703D0
:104EC0000349CB5C22FA03F3184680BD0038024048
:104ED000A077000880B500AFFFF7DCFF0246054B66
:104EE0009B685B0B03F007030349CB5C22FA03F3D7
:104EF000184680BD00380240A077000880B582B017
:104F000000AF78607B68002B01D1012341E07B6812
:104F100093F83D30DBB2002B06D17B68002283F88A
:104F20003C207868FDF7B6FC7B68022283F83D20C0
:104F30007B681A687B6804331946104600F0ECFA67
:104F40007B68012283F846207B68012283F83E209B
:104F50007B68012283F83F207B68012283F8402090
:104F60007B68012283F841207B68012283F842207C
:104F70007B68012283F843207B68012283F8442068
:104F80007B68012283F845207B68012283F83D205D
:104F9000002318460837BD4680BD000080B584B0A8
:104FA00000AF786039603B68002B09D17B6893F8CB
:104FB0003E30DBB2012B14BF01230023DBB222E021
:104FC0003B68042B09D17B6893F83F30DBB2012B9F
:104FD00014BF01230023DBB215E03B68082B09D185
:104FE0007B6893F84030DBB2012B14BF0123002310
:104FF000DBB208E07B6893F84130DBB2012B14BFD1
:1050000001230023DBB2002B01D001237CE03B68AD
:10501000002B04D17B68022283F83E2013E03B681A
:10502000042B04D17B68022283F83F200BE03B680D
:10503000082B04D17B68022283F8402003E07B68C0
:10504000022283F841207B681B68012239681846D8
:1050500000F0B8FC7B681B682D4A934204D07B6843
:105060001B682C4A934201D1012300E00023002B4E
:1050700007D07B681B685A6C7B681B6842F400424F
:105080005A647B681B68224A934222D07B681B6863
:10509000B3F1804F1DD07B681B681F4A934218D024
:1050A0007B681B681D4A934213D07B681B681C4AAF
:1050B00093420ED07B681B68164A934209D07B68E6
:1050C0001B68184A934204D07B681B68164A9342B7
:1050D00011D17B681B689B6803F00703FB60FB68CA
:1050E000062B10D07B681B681A687B681B6842F02F
:1050F00001021A6007E07B681B681A687B681B68FE
:1051000042F001021A60002318461037BD4680BDE8
:10511000000001400004014000040040000800407D
:10512000000C0040004001400018004080B586B0EF
:1051300000AF786039607B68002B01D1012397E0D4
:105140007B6893F83D30DBB2002B06D17B680022F0
:1051500083F83C207868FDF7EBFB7B68022283F83C
:105160003D207B681B689B687A68126823F4804343
:1051700023F0070393607B681A687B680433194641
:10518000104600F0C9F97B681B689B687B617B68EF
:105190001B689B693B617B681B681B6AFB603B6803
:1051A0001B687A6913437B613B6923F4407323F0E6
:1051B00003033B613B689A683B689B691B0213438E
:1051C0003A6913433B613B6923F4406323F00C03CA
:1051D0003B613B6923F4704323F0F0033B613B6880
:1051E000DA683B68DB691B0213433A6913433B618E
:1051F0003B681B691A013B681B6A1B0313433A692E
:1052000013433B61FB6823F02203FB60FB6823F040
:105210008803FB603B685A683B685B691B0113436A
:10522000FA681343FB607B681B687A699A607B6845
:105230001B683A699A617B681B68FA681A627B6826
:10524000012283F846207B68012283F83E207B6898
:10525000012283F83F207B68012283F842207B688B
:10526000012283F843207B68012283F83D2000233C
:1052700018461837BD4680BD80B584B000AF786051
:1052800039607B6893F83E30FB737B6893F83F305E
:10529000BB737B6893F842307B737B6893F8433031
:1052A0003B733B68002B10D1FB7B012B02D17B7B36
:1052B000012B01D0012369E07B68022283F83E20A4
:1052C0007B68022283F8422031E03B68042B10D136
:1052D000BB7B012B02D13B7B012B01D0012355E08D
:1052E0007B68022283F83F207B68022283F84320F8
:1052F0001DE0FB7B012B08D1BB7B012B05D17B7B08
:10530000012B02D13B7B012B01D001233EE07B68C6
:10531000022283F83E207B68022283F83F207B68CC
:10532000022283F842207B68022283F843203B68F4
:10533000002B03D03B68042B08D00FE07B681B6870
:1053400001220021184600F03DFB16E07B681B6837
:1053500001220421184600F035FB0EE07B681B6833
:1053600001220021184600F02DFB7B681B680122FA
:105370000421184600F026FB00BF7B681B681A68F2
:105380007B681B6842F001021A6000231846103740
:10539000BD4680BD80B586B000AFF860B9607A6068
:1053A0000023FB75FB6893F83C30012B01D10223ED
:1053B000AEE0FB68012283F83C207B680C2B00F2F6
:1053C0009F8001A252F823F0FD5300080155000808
:1053D00001550008015500083D540008015500081A
:1053E00001550008015500087F54000801550008C8
:1053F0000155000801550008BF540008FB681B68F0
:10540000B968184600F02EF9FB681B689A69FB68BA
:105410001B6842F008029A61FB681B689A69FB6886
:105420001B6822F004029A61FB681B689969BB68DB
:105430001A69FB681B680A439A6164E0FB681B6891
:10544000B968184600F07EF9FB681B689A69FB682A
:105450001B6842F400629A61FB681B689A69FB68EA
:105460001B6822F480629A61FB681B689969BB68BB
:105470001B691A02FB681B680A439A6143E0FB68D8
:105480001B68B968184600F0D3F9FB681B68DA6935
:10549000FB681B6842F00802DA61FB681B68DA6986
:1054A000FB681B6822F00402DA61FB681B68D9699B
:1054B000BB681A69FB681B680A43DA6123E0FB6872
:1054C0001B68B968184600F027FAFB681B68DA69A0
:1054D000FB681B6842F40062DA61FB681B68DA69EA
:1054E000FB681B6822F48062DA61FB681B68D9697B
:1054F000BB681B691A02FB681B680A43DA6102E099
:105500000123FB7500BFFB68002283F83C20FB7D74
:1055100018461837BD4680BD80B485B000AF7860AE
:1055200039607B681B68FB607B68434A934213D0F9
:105530007B68B3F1804F0FD07B68404A93420BD019
:105540007B683F4A934207D07B683E4A934203D030
:105550007B683D4A934208D1FB6823F07003FB60EF
:105560003B685B68FA681343FB607B68324A93428E
:105570002BD07B68B3F1804F27D07B682F4A9342B2
:1055800023D07B682E4A93421FD07B682D4A9342DA
:105590001BD07B682C4A934217D07B682B4A9342DE
:1055A00013D07B682A4A93420FD07B68294A9342E2
:1055B0000BD07B68284A934207D07B68274A9342E6
:1055C00003D07B68264A934208D1FB6823F44073DA
:1055D000FB603B68DB68FA681343FB60FB6823F001
:1055E00080023B685B691343FB603B689A687B6899
:1055F000DA623B681A687B689A627B680E4A93425B
:1056000003D07B68104A934203D13B681A697B68D8
:105610001A637B681B6843F004027B681A607B682E
:1056200001225A617B68FA681A6000BF1437BD46D0
:105630005DF8047B704700BF00000140000400409B
:1056400000080040000C0040000401400040014000
:10565000004401400048014000180040001C004088
:105660000020004080B487B000AF786039607B686C
:105670001B6A7B617B681B6A23F001027B681A62EC
:105680007B685B683B617B689B69FB60FB6823F020
:105690007003FB60FB6823F00303FB603B681B683F
:1056A000FA681343FB607B6923F002037B613B686C
:1056B0009B687A6913437B617B68204A934203D0DD
:1056C0007B681F4A93420CD17B6923F008037B61FE
:1056D0003B68DB687A6913437B617B6923F00403D1
:1056E0007B617B68154A934203D07B68144A9342DE
:1056F00011D13B6923F480733B613B6923F4007350
:105700003B613B685B693A6913433B613B689B695A
:105710003A6913433B617B683A695A607B68FA686F
:105720009A613B685A687B685A637B687A691A6237
:1057300000BF1C37BD465DF8047B70470000014088
:105740000004014080B487B000AF786039607B68A6
:105750001B6A7B617B681B6A23F010027B681A62FC
:105760007B685B683B617B689B69FB60FB6823F43B
:10577000E043FB60FB6823F44073FB603B681B68FD
:105780001B02FA681343FB607B6923F020037B61F3
:105790003B689B681B017A6913437B617B68224AE3
:1057A000934203D07B68214A93420DD17B6923F059
:1057B00080037B613B68DB681B017A6913437B6173
:1057C0007B6923F040037B617B68174A934203D0D7
:1057D0007B68164A934213D13B6923F480633B6193
:1057E0003B6923F400633B613B685B699B003A695A
:1057F00013433B613B689B699B003A6913433B61E0
:105800007B683A695A607B68FA689A613B685A68B3
:105810007B689A637B687A691A6200BF1C37BD4651
:105820005DF8047B704700BF0000014000040140A8
:1058300080B487B000AF786039607B681B6A7B6199
:105840007B681B6A23F480727B681A627B685B68E2
:105850003B617B68DB69FB60FB6823F07003FB60E6
:10586000FB6823F00303FB603B681B68FA68134383
:10587000FB607B6923F400737B613B689B681B02C0
:105880007A6913437B617B68214A934203D07B682A
:10589000204A93420DD17B6923F400637B613B680E
:1058A000DB681B027A6913437B617B6923F48063A5
:1058B0007B617B68164A934203D07B68154A93420A
:1058C00013D13B6923F480533B613B6923F40053BC
:1058D0003B613B685B691B013A6913433B613B6871
:1058E0009B691B013A6913433B617B683A695A60C3
:1058F0007B68FA68DA613B685A687B68DA637B68C0
:105900007A691A6200BF1C37BD465DF8047B704798
:10591000000001400004014080B487B000AF78600F
:1059200039607B681B6A3B617B681B6A23F4805289
:105930007B681A627B685B687B617B68DB69FB6004
:10594000FB6823F4E043FB60FB6823F44073FB60D7
:105950003B681B681B02FA681343FB603B6923F436
:1059600000533B613B689B681B033A6913433B61EF
:105970007B68124A934203D07B68114A934209D153
:105980007B6923F480437B613B685B699B017A6997
:1059900013437B617B687A695A607B68FA68DA61D5
:1059A0003B685A687B681A647B683A691A6200BF70
:1059B0001C37BD465DF8047B704700BF0000014006
:1059C0000004014080B487B000AFF860B9607A602D
:1059D000BB6803F01F03012202FA03F37B61FB683B
:1059E0001A6A7B69DB431A40FB681A62FB681A6A11
:1059F000BB6803F01F03796801FA03F31A43FB68DD
:105A00001A6200BF1C37BD465DF8047B704700007A
:105A100080B485B000AF786039607B6893F83C3023
:105A2000012B01D102235AE07B68012283F83C203C
:105A30007B68022283F83D207B681B685B68FB6003
:105A40007B681B689B68BB60FB6823F07003FB608E
:105A50003B681B68FA681343FB607B681B68FA6845
:105A60005A607B681B68214A934222D07B681B687E
:105A7000B3F1804F1DD07B681B681D4A934218D03C
:105A80007B681B681B4A934213D07B681B681A4AC9
:105A900093420ED07B681B68184A934209D07B68FA
:105AA0001B68174A934204D07B681B68154A9342CF
:105AB0000CD1BB6823F08003BB603B685B68BA68AD
:105AC0001343BB607B681B68BA689A607B680122DD
:105AD00083F83D207B68002283F83C200023184691
