:020000040800F2
:1000000000000220B92F0008B52E0008BD2E000800
:10001000C52E0008CD2E0008D52E000800000000D7
:10002000000000000000000000000000DD2E0008BD
:10003000EB2E000800000000F92E0008072F000832
:1000400009300008093000080930000809300008AC
:10005000093000080930000809300008093000089C
:10006000093000080930000809300008093000088C
:10007000093000080930000809300008093000087C
:10008000093000080930000809300008093000086C
:10009000093000080930000809300008093000085C
:1000A000093000080930000809300008093000084C
:1000B000093000080930000809300008093000083C
:1000C000093000080930000809300008093000082C
:1000D000093000080930000809300008152F000811
:1000E000093000080930000809300008093000080C
:1000F00009300008093000080930000809300008FC
:1001000009300008093000080930000809300008EB
:1001100009300008093000080930000809300008DB
:1001200009300008093000080930000809300008CB
:1001300009300008093000080930000809300008BB
:1001400009300008093000080930000809300008AB
:10015000093000080930000809300008093000089B
:10016000093000080930000809300008093000088B
:1001700009300008093000080930000800000000BC
:080180000930000809300008F5
:1001900010B5054C237833B9044B13B10448AFF3C1
:1001A00000800123237010BDB0010020000000007A
:1001B000A478000808B5034B1BB103490348AFF30B
:1001C000008008BD00000000B4010020A4780008F1
:1001D00010F8012B11F8013B012A28BF9A42F7D0F1
:1001E000D01A70470000000000000000000000006E
:1001F00001F0FF01102A2BDB10F0070F08D010F8D8
:10020000013B013A8B422DD010F0070F42B3F6D1DB
:10021000F0B441EA012141EA014122F007047FF0F4
:1002200000070023F0E80256083C85EA010586EA4B
:10023000010685FA47F5A3FA87F586FA47F6A5FA87
:1002400087F68EB9EED1F0BC01F0FF0102F0070293
:1002500032B110F8013B013A83EA010313B1F8D13E
:100260000020704701387047002D06BF354603381F
:10027000073815F0010F07D1013015F4807F02BF58
:10028000013015F4C03F0130F0BC0138704700BFA9
:1002900053B94AB9002908BF00281CBF4FF0FF31ED
:1002A0004FF0FF3000F088B9ADF1080C6DE904CED5
:1002B00000F006F8DDF804E0DDE9022304B0704741
:1002C0002DE9F047089D0F4604468C46002B48D187
:1002D0008A42164661D9B2FA82F34BB1C3F12002C9
:1002E00001FA03FC20FA02F29E4042EA0C0C9C4008
:1002F0004FEA164EB7B2BCFBFEF1220C0EFB11CC3E
:1003000042EA0C4201FB07F0904209D9B21801F110
:10031000FF3C80F0EE80904240F2EB8002393244A4
:10032000121AA4B2B2FBFEF00EFB102244EA024401
:1003300000FB07F7A74209D9341900F1FF3280F01A
:10034000DA80A74240F2D7803444023840EA0140C4
:10035000E41B00211DB1DC400023C5E90043BDE8DA
:10036000F0878B4206D90DB1C5E90001002108468E
:10037000BDE8F087B3FA83F1002948D1BB4202D32C
:10038000824200F20781841A67EB0302012094463F
:10039000002DE4D0C5E9004CE1E7002A00F092808E
:1003A000B2FA82F3002B40F0A8808A1A4FEA164E68
:1003B0001FFA86FC0121200CB2FBFEF70EFB172270
:1003C00040EA02420CFB07F0904207D9B21807F14D
:1003D000FF3802D2904200F2E2804746121AA4B2DD
:1003E000B2FBFEF00EFB102244EA02440CFB00FCC0
:1003F000A44507D9341900F1FF3202D2A44500F216
:10040000CB801046A4EB0C0440EA0740A2E7C1F100
:1004100020068B4022FA06FC4CEA030C07FA01F492
:1004200020FA06F3F7404FEA1C49234300FA01F88B
:100430001FFA8CFEB7FBF9F01C0C09FB107744EA9D
:10044000074400FB0EF7A74202FA01F20AD91CEB9F
:10045000040400F1FF3A80F09B80A74240F29880AC
:1004600002386444E41B9FB2B4FBF9F309FB134464
:1004700047EA044403FB0EFEA64509D91CEB04041D
:1004800003F1FF3780F08280A6457FD9023B6444A8
:1004900043EA0040A4EB0E04A0FB02E7BC42734613
:1004A000B94663D360D05DB1B8EB030264EB0904D5
:1004B00004FA06F622FA01F31E43CC40C5E90064B3
:1004C00000214CE76208480842EAC1710B0C43EA7C
:1004D00000438AB242EA0342B3FBF6F1E407B446B2
:1004E0003746B6461F23B0FBF6F0D21B41EA004167
:1004F00061E7614614E7104628E7C3F1200120FABE
:1005000001F29E4027FA01F19F403A434FEA164E0E
:100510001FFA86FCB1FBFEF70EFB1710110C41EA27
:10052000004107FB0CF8884504FA03F43AD9711826
:1005300007F1FF3001D288451FD8A1EB0801B1FBBC
:10054000FEF808FB0CF70EFB181192B242EA0142CA
:10055000BA422FD2B21808F1FF31C6D2BA42C4D281
:10056000A8F102013244C0E7F0459CD2BEEB020381
:1005700067EB0C070138B94695E7A6EB080841443C
:10058000B81EB1FBFEF808FB0CF7DCE73B467FE743
:10059000504667E70846FBE63444023832E7023F3C
:1005A00032441BE7A1EB08013846B1FBFEF808FB1B
:1005B0000CF7C8E7414698E7704700BF80B584B0A4
:1005C00000AF02F023FD00F033F900F0B3FA00F0C1
:1005D00087FA00F08BF900F0EDF900F03BFA02F039
:1005E0005FF902F0B1F901F03BFE3C217D4804F0D7
:1005F0004FFF3C217C4804F04BFF02F015FA082124
:100600007A4804F0D7FD0C21784804F0D3FD00218E
:10061000774804F0CFFD0421754804F0CBFD042198
:10062000744804F0C7FD01F0EBFD01F0C1F90122AF
:100630007149724805F04FFC01F0C8FE704B1B7801
:10064000DBB2002B11D06E4B1B78FB736C4B00227E
:100650001A70FB7B012B02D0022B03D005E001F0C6
:10066000BBF902E001F0E0F900BF664B1B78DBB29A
:10067000002B11D0634B1B78BB73634B1B88BB8172
:10068000604B00221A70604B00221A80BA89BB7B33
:100690001146184601F03AFC5C4B1B889BB2002BBC
:1006A00009D05A4B1B887B81584B00221A807B89CA
:1006B000184601F093FA564B1B889BB2002B09D0C9
:1006C000534B1B883B81524B00221A803B891846B2
:1006D00001F09EFA4F4B1B889BB2002B09D04D4B6B
:1006E0001B88FB804B4B00221A80FB88184601F0C8
:1006F000A9FA494B1B889BB2002B09D0464B1B889B
:10070000BB80454B00221A80BB88184601F0B4FA22
:10071000424B1B78DBB2002B11D0404B1B78FB7097
:100720003F4B1B883B803D4B00221A703C4B002204
:100730001A803A88FB781146184601F0B7FA394B0F
:100740001B78DBB2002B04D0364B00221A7001F06C
:10075000C9FE354B1B78DBB2002B04D0324B002294
:100760001A7001F0F7FE264B1B78DBB2002B7FF4EA
:1007700065AF244B1B78DBB2002B7FF45FAF234BBC
:100780001B889BB2002B7FF459AF224B1B889BB276
:10079000002B7FF453AF204B1B889BB2002B7FF4C0
:1007A0004DAF1B4B1B889BB2002B7FF447AF1B4BFD
:1007B0001B78DBB2002B7FF441AF1A4B1B78DBB206
:1007C000002B7FF43BAF184B1B78DBB2002B7FF480
:1007D00035AF4FF48071154803F007F8C82002F0D8
:1007E00087FC2BE7CC010020140200205C020020D3
:1007F000A4020020EC020020D00300208803002087
:10080000F5030020F6030020F8030020FA0300207F
:10081000FC030020FE03002000040020020400204E
:1008200004040020060400200704002000100240F9
:1008300080B594B000AF07F12003302200211846A4
:1008400006F098FB07F10C0300221A605A609A60C8
:10085000DA601A610023BB60224B1B6C214A43F013
:10086000805313641F4B1B6C03F08053BB60BB6849
:1008700000237B601C4B1B681B4A43F480431360BE
:10088000194B1B6803F480437B607B6802233B6247
:100890000123FB6210233B630023BB6307F12003AA
:1008A000184603F0E1FF0346002B01D002F0D0F818
:1008B0000F23FB6000233B6100237B610023BB61AE
:1008C0000023FB6107F10C030021184604F044FAF1
:1008D0000346002B01D002F0BBF800BF5037BD46E5
:1008E00080BD00BF003802400070004080B58AB073
:1008F00000AF07F1200300221A605A603B1D00225E
:100900001A605A609A60DA601A615A619A61274BDC
:10091000274A1A60254B00225A60244B00229A6015
:10092000224B4FF6FF72DA60204B00221A611F4BF8
:1009300000229A611D4804F0EDFB0346002B01D014
:1009400002F086F800233B6200237B6207F120035C
:100950001946164805F068F90346002B01D002F04D
:1009600077F860237B600023BB600023FB600023DB
:100970007B613B1D082219460C4804F017FE034614
:10098000002B01D002F064F83B1D0C2219460748E9
:1009900004F00CFE0346002B01D002F059F8034886
:1009A00002F066F900BF2837BD4680BD5C0200201A
:1009B0000008004080B588B000AF3B1D00221A60DF
:1009C0005A609A60DA601A615A619A611F4B204A34
:1009D0001A601E4B00225A601C4B00229A601B4B6F
:1009E0004FF6FF72DA60194B00221A61174B002292
:1009F0009A61164804F08EFB0346002B01D002F0EA
:100A000027F860237B600023BB600023FB6000238A
:100A10007B613B1D002219460C4804F0C7FD0346CC
:100A2000002B01D002F014F83B1D042219460748A0
:100A300004F0BCFD0346002B01D002F009F8034886
:100A400002F016F900BF2037BD4680BDA402002089
:100A50000040014080B588B000AF3B1D00221A6005
:100A60005A609A60DA601A615A619A611A4B1B4A9D
:100A70001A60194B0F225A60174B00229A60164BCE
:100A800044F61F62DA60144B00221A61124B0022F6
:100A90009A61114804F03EFB0346002B01D001F09F
:100AA000D7FF60237B600023BB600023FB60002333
:100AB0007B613B1D04221946074804F077FD03467D
:100AC000002B01D001F0C4FF034802F0D1F800BFB1
:100AD0002037BD4680BD00BFEC020020001800405A
:100AE00080B500AF114B124A1A60104B4FF4E1323F
:100AF0005A600E4B00229A600C4B0022DA600B4BBE
:100B000000221A61094B0C225A61084B00229A619B
:100B1000064B0022DA61054805F002F90346002B76
:100B200001D001F095FF00BF80BD00BF8803002009
:100B30000048004080B58AB000AF07F114030022DE
:100B40001A605A609A60DA601A6100233B61324B86
:100B50001B6B314A43F0100313632F4B1B6B03F0E5
:100B600010033B613B690023FB602B4B1B6B2A4A44
:100B700043F002031363284B1B6B03F00203FB607B
:100B8000FB680023BB60244B1B6B234A43F0080324
:100B90001363214B1B6B03F00803BB60BB6800238E
:100BA0007B601D4B1B6B1C4A43F0010313631A4B04
:100BB0001B6B03F001037B607B6800224FF48071A4
:100BC000164802F0F9FD00224FF48071144802F03B
:100BD000F3FD4FF480737B610123BB610023FB6154
:100BE00000233B6207F1140319460C4802F048FC4D
:100BF0004FF480737B610123BB610023FB61002301
:100C00003B6207F114031946054802F039FC00BFA6
:100C10002837BD4680BD00BF0038024000100240AA
:100C20000000024090B5C1B002AF78607B681B68DD
:100C3000BC4A934240F01386BB4B1B780D2B04D06B
:100C4000B94B1B780A2B40F0A185B84B1B78002BC1
:100C500000F00086B54B1B781A46B54B002199541D
:100C6000B449B348FFF7B4FA0346002B08D14FF05C
:100C7000FF330622B049B14805F0A2F800F07DBD6F
:100C8000AF49AB48FFF7A4FA0346002B0BD1AD4B9D
:100C900001221A704FF0FF330722AB49A74805F035
:100CA0008FF800F06ABDA949A148FFF791FA034601
:100CB000002B0BD1A34B02221A704FF0FF330722F7
:100CC000A3499E4805F07CF800F057BDA14998481B
:100CD000FFF77EFA0346002B28D19F4B01221A70A2
:100CE000984B00221A709D4B00221A709C4B0022D8
:100CF0001A809C4B00221A809B4B00221A809B4B2F
:100D000000221A809A4B00221A809A4B00221A70F5
:100D1000994B00221A8000F04BFE4FF0FF33072260
:100D20009649864805F04CF800F027BD9449804864
:100D3000FFF74EFA0346002B1CD101F061FA914BEC
:100D40001B6807F1A000904A182106F059F8C7F86F
:100D5000B800D7F8B830002B40F30F85D7F8B8307B
:100D60009AB207F1A0014FF0FF33744805F028F85C
:100D700000F003BD85496E48FFF72AFA0346002BB1
:100D80001CD101F045FA7F4B1B6807F18800804AAF
:100D9000182106F035F8C7F8BC00D7F8BC30002B96
:100DA00040F3EB84D7F8BC309AB207F188014FF0DA
:100DB000FF33624805F004F800F0DFBC75495C4879
:100DC000FFF706FA0346002B1CD101F02DFA6D4BFC
:100DD0001B6807F17000704A182106F011F8C7F877
:100DE000C000D7F8C030002B40F3C784D7F8C0301C
:100DF0009AB207F170014FF0FF33504804F0E0FF62
:100E000000F0BBBC65494A48FFF7E2F90346002BF6
:100E10001CD101F015FA5B4B1B6807F15800604AC2
:100E2000182105F0EDFFC7F8C400D7F8C430002B37
:100E300040F3A384D7F8C4309AB207F158014FF0B9
:100E4000FF333E4804F0BCFF00F097BC55493848DA
:100E5000FFF7BEF90346002B1CD101F0F9F9494B0D
:100E60001B6807F14000504A182105F0C9FFC7F878
:100E7000C800D7F8C830002B40F37F84D7F8C830BB
:100E80009AB207F140014FF0FF332C4804F098FF6D
:100E900000F073BC45492648FFF79AF90346002B3A
:100EA00021D101F0A5FD03461C4601F0AFFD03462C
:100EB00007F10C00009323463D4A302105F0A0FFC6
:100EC000C7F8CC00D7F8CC30002B40F35684D7F8C5
:100ED000CC309AB207F10C014FF0FF33174804F001
:100EE0006FFF00F04ABC33491148FFF771F9034620
:100EF000002B0AD101F098FD4FF0FF330A222E4952
:100F00000E4804F05DFF00F038BC2C490848FFF79C
:100F10005FF90346002B55D1294B01221A7000F0CE
:100F20002CBC00BF00480040D0030020F403002088
:100F3000D4030020BC7800080000002088030020B3
:100F4000C4780008F503002018000020C8780008C5
:100F500020000020CC78000808040020F6030020C0
:100F6000F8030020FA030020FC030020FE03002009
:100F700000040020020400200404002028000020B7
:100F8000D078000850010020D4780008E4780008E8
:100F9000E8780008F8780008FC7800080C79000868
:100FA00010790008207900082479000834790008B5
:100FB0003879000848790008507900085C79000801
:100FC000060400209B499C48FFF702F90346002BCA
:100FD00003D19A4B01221A70CFE303229849964815
:100FE00005F0D0FF0346002B51D1964B184605F073
:100FF00003FFC7F8D000D7F8D0302C2B04DDD7F88A
:10100000D030B3F5B47F07DD4FF0FF330B228E49AC
:101010008E4804F0D5FEB0E38D4B1B78DBB2002B7D
:101020002DD18C4B1B78DBB2002B28D18A4B1B882F
:101030009BB2002B23D1894B1B889BB2002B1ED166
:10104000874B1B889BB2002B19D1864B1B889BB208
:10105000002B14D1844B1B78DBB2002B0FD17D4BBE
:1010600001221A70D7F8D0309AB2804B1A804FF014
:10107000FF3308227E49754804F0A2FE7DE34FF05D
:10108000FF330A227B49714804F09AFE75E303227C
:101090007949694805F076FF0346002B51D1694B29
:1010A000184605F0A9FEC7F8D400D7F8D4302C2B89
:1010B00004DDD7F8D430B3F5B47F07DD4FF0FF334C
:1010C0000B226149614804F07BFE56E3604B1B78BC
:1010D000DBB2002B2DD15F4B1B78DBB2002B28D16C
:1010E0005D4B1B889BB2002B23D15C4B1B889BB2B2
:1010F000002B1ED15A4B1B889BB2002B19D1594B88
:101100001B889BB2002B14D1574B1B78DBB2002BF2
:101110000FD1504B02221A70D7F8D4309AB2534BE9
:101120001A804FF0FF3308225449484804F048FE23
:1011300023E34FF0FF330A224E49444804F040FEB7
:101140001BE303224E493C4805F01CFF0346002BDD
:1011500051D13C4B184605F04FFEC7F8D800D7F8E0
:10116000D8302C2B04DDD7F8D830B3F5B47F07DDA9
:101170004FF0FF330B223449344804F021FEFCE2E7
:10118000334B1B78DBB2002B2DD1324B1B78DBB2FB
:10119000002B28D1304B1B889BB2002B23D12F4B27
:1011A0001B889BB2002B1ED12D4B1B889BB2002BA2
:1011B00019D12C4B1B889BB2002B14D12A4B1B78C6
:1011C000DBB2002B0FD1234B03221A70D7F8D83093
:1011D0009AB2264B1A804FF0FF33082229491B4848
:1011E00004F0EEFDC9E24FF0FF330A22214917480F
:1011F00004F0E6FDC1E2032223490F4805F0C2FED8
:101200000346002B7DD10F4B184605F0F5FDC7F8BE
:10121000DC00D7F8DC302C2B04DDD7F8DC30B3F55C
:10122000B47F33DD4FF0FF330B220749074804F04A
:10123000C7FDA2E260790008D40300200704002063
:1012400068790008D70300203000002088030020C0
:10125000F5030020F6030020FA030020FE0300201F
:1012600000040020FC03002002040020F8030020FA
:10127000900000203C0000206C7900089C000020B9
:1012800070790008A8000020747900089A4B1B7838
:10129000DBB2002B2DD1994B1B78DBB2002B28D170
:1012A000974B1B889BB2002B23D1964B1B889BB27C
:1012B000002B1ED1944B1B889BB2002B19D1934B52
:1012C0001B889BB2002B14D1914B1B78DBB2002BF7
:1012D0000FD18A4B04221A70D7F8DC309AB28D4BAA
:1012E0001A804FF0FF3308228B498C4804F068FDC8
:1012F00043E24FF0FF330A228949884804F060FD39
:101300003BE203228749884805F03CFE0346002B58
:101310004DD1864B184605F06FFDC7F8E000D7F8B1
:10132000E030042B03DDD7F8E030C82B07DD4FF0A9
:10133000FF330B227E49794804F042FD1DE26E4BDB
:101340001B78DBB2002B2AD16C4B1B78DBB2002B55
:1013500025D16B4B1B889BB2002B20D1694B1B887E
:101360009BB2002B1BD1684B1B889BB2002B16D164
:10137000664B1B889BB2002B11D1654B1B78DBB2EF
:10138000002B0CD1D7F8E0309AB25D4B1A804FF0A9
:10139000FF3308226749614804F012FDEDE14FF088
:1013A000FF330A225E495D4804F00AFDE5E10322AD
:1013B00061495D4805F0E6FD0346002B4DD15B4BCE
:1013C000184605F019FDC7F8E400D7F8E430042BFF
:1013D00003DDD7F8E430C82B07DD4FF0FF330B22D5
:1013E00053494E4804F0ECFCC7E1434B1B78DBB299
:1013F000002B2AD1414B1B78DBB2002B25D1404B6F
:101400001B889BB2002B20D13E4B1B889BB2002B2C
:101410001BD13D4B1B889BB2002B16D13B4B1B882D
:101420009BB2002B11D13A4B1B78DBB2002B0CD1B5
:10143000D7F8E4309AB2354B1A804FF0FF330822C8
:101440003E49364804F0BCFC97E14FF0FF330A22D6
:101450003349324804F0B4FC8FE103223849324862
:1014600005F090FD0346002B76D1304B184605F071
:10147000C3FCC7F8E800D7F8E830042B03DDD7F841
:10148000E830C82B07DD4FF0FF330B2228492348F3
:1014900004F096FC71E1184B1B78DBB2002B53D1A2
:1014A000164B1B78DBB2002B4ED1154B1B889BB221
:1014B000002B49D1134B1B889BB2002B44D1124BFC
:1014C0001B889BB2002B3FD1104B1B889BB2002B7B
:1014D0003AD10F4B1B78DBB2002B35D1D7F8E8306F
:1014E0009AB2084B1A804FF0FF33082215490B4877
:1014F00004F066FC41E100BFF5030020F603002084
:10150000FA030020FE03002000040020FC0300205A
:1015100002040020F8030020B4000020880300200B
:101520003C00002078790008D4030020D703002075
:1015300030000020480000207C7900085400002082
:1015400080790008600000204FF0FF330A229E4996
:101550009E4804F035FC10E103229D499D4805F0AA
:1015600011FD0346002B4DD19B4B184605F044FC62
:10157000C7F8EC00D7F8EC30042B03DDD7F8EC30DB
:10158000C82B07DD4FF0FF330B2294498F4804F03E
:1015900017FCF2E0924B1B78DBB2002B2AD1914B67
:1015A0001B78DBB2002B25D18F4B1B889BB2002B05
:1015B00020D18E4B1B889BB2002B1BD18C4B1B88E0
:1015C0009BB2002B16D18B4B1B889BB2002B11D1E9
:1015D000894B1B78DBB2002B0CD1D7F8EC309AB2D8
:1015E000834B1A804FF0FF3308228449774804F078
:1015F000E7FBC2E04FF0FF330A227349734804F05F
:10160000DFFBBAE003227E49724805F0BBFC0346CB
:10161000002B51D1704B184605F0EEFBC7F8F000D7
:10162000D7F8F030592B04DDD7F8F030B3F5B47F9C
:1016300007DD4FF0FF330B226849644804F0C0FB1C
:101640009BE0674B1B78DBB2002B2DD1654B1B78E1
:10165000DBB2002B28D1644B1B889BB2002B23D11B
:10166000624B1B889BB2002B1ED1614B1B889BB227
:10167000002B19D15F4B1B889BB2002B14D15E4B02
:101680001B78DBB2002B0FD15B4B01221A70D7F80D
:10169000F0309AB25B4B1A804FF0FF3308225A4960
:1016A0004A4804F08DFB68E04FF0FF330A224649B8
:1016B000464804F085FB60E003225449454805F0A4
:1016C00061FC0346002B51D1434B184605F094FBB7
:1016D000C7F8F400D7F8F430592B04DDD7F8F4300C
:1016E000B3F5B47F07DD4FF0FF330B223B4937489A
:1016F00004F066FB41E03A4B1B78DBB2002B2DD1A6
:10170000384B1B78DBB2002B28D1374B1B889BB2A0
:10171000002B23D1354B1B889BB2002B1ED1344BA1
:101720001B889BB2002B19D1324B1B889BB2002B1C
:1017300014D1314B1B78DBB2002B0FD12E4B022280
:101740001A70D7F8F4309AB22E4B1A804FF0FF334C
:1017500008222F491D4804F033FB0EE04FF0FF3301
:101760000A221949194804F02BFB06E04FF0FF3319
:101770000D222849154804F023FB274B00221A703C
:1017800020220021134805F0F5FB63E0234B1B7872
:10179000082B03D0214B1B787F2B43D11E4B1B788A
:1017A000002B57D01C4B1B78013BDAB21A4B1A7036
:1017B0001B4BFB6307F13C014FF0FF33032203484F
:1017C00004F0FEFA46E000BF3C0000208803002041
:1017D00084790008D4030020D703002030000020C3
:1017E000F5030020F6030020FA030020FE0300208A
:1017F00000040020FC030020020400206C000020F4
:101800008879000804040020780000208C79000802
:101810008400002008000020F4030020D0030020F2
:1018200008200800104B1B781E2B0BD80E4B1B7882
:101830005A1CD1B20C4A11701A460C4B19780C4B39
:10184000995407E0084B00221A7020220021084812
:1018500005F090FB01220549064804F03CFB00BF5F
:10186000FC37BD4690BD00BFF4030020D00300202C
:10187000D40300208803002080B400AF064B1B680F
:1018800000221A64044B1B680022DA6300BFBD46C5
:101890005DF8047B704700BF5C02002080B483B019
:1018A00000AF7860064B1B687A681A64044B1B68AB
:1018B0007A68DA6300BF0C37BD465DF8047B704779
:1018C0005C02002080B483B000AF7860064B1B68D8
:1018D00000221A64044B1B687A68DA6300BF0C3775
:1018E000BD465DF8047B70475C02002080B483B085
:1018F00000AF7860064B1B687A681A64044B1B685B
:101900000022DA6300BF0C37BD465DF8047B7047E8
:101910005C02002080B400AF064B1B6800225A63B3
:10192000044B1B6800229A6300BFBD465DF8047B30
:10193000704700BFA402002080B483B000AF78607D
:10194000064B1B687A685A63044B1B687A689A6373
:1019500000BF0C37BD465DF8047B7047A402002031
:1019600080B483B000AF7860064B1B687A685A6316
:10197000044B1B6800229A6300BF0C37BD465DF81C
:10198000047B7047A402002080B483B000AF78606D
:10199000064B1B6800225A63044B1B687A689A63E3
:1019A00000BF0C37BD465DF8047B7047A4020020E1
:1019B00080B500AFFFF760FFFFF7ACFF00BF80BD51
:1019C00080B500AF4FF6FF70FFF768FF4FF6FF706E
:1019D000FFF7B2FF00BF80BD80B500AF0F4B002204
:1019E0001A7048F26560FFF76DFF47F69810FFF731
:1019F000B7FF4FF4FA7001F07BFBFFF7D9FF074BFD
:101A00001B78DBB2002B06D14FF0FF3308220449CC
:101A1000044804F0D5F900BF80BD00BF08040020D1
:101A2000380100208803002080B500AF0F4B002252
:101A30001A7048F26560FFF759FF47F69810FFF7F4
:101A4000A3FF4FF4FA7001F053FBFFF7B1FF074B10
:101A50001B78DBB2002B06D14FF0FF33082204497C
:101A6000044804F0ADF900BF80BD00BF08040020A9
:101A7000440100208803002080B582B000AF00F050
:101A8000B7FF03467B6000F0C1FF03463B607B6805
:101A9000002B02DA7B685B427B603B68002B02DA3A
:101AA0003B685B423B607A683B681344DA0F13443F
:101AB0005B1018460837BD4680BD000080B58AB06F
:101AC00000AFB9607A603B600346FB81FB897A68AE
:101AD00002FB03F33C4AA2FB03235B091A463B6863
:101AE000D31A7B627B6A002B01DD7B6A00E0012355
:101AF0003B62364B00221A7000F082FBC82001F0D6
:101B0000F7FA00F091FFBB6807EE903AF8EE677ABB
:101B10009FED2F7A67EE877AFCEEE77A17EE903A20
:101B2000FB61BB6807EE903AF8EE677A9FED297A81
:101B300067EE877AFCEEE77A17EE903ABB6197F88A
:101B40003030002B06D0F869FFF7D0FEB869FFF7F8
:101B50001BFF05E0F869FFF7B5FEB869FFF700FF66
:101B600001F0BAFA78610DE0184B1B78DBB2002B5C
:101B70000FD101F0B1FA02467B69D31A4EF660220A
:101B8000934208D8FFF778FF02463B6A9342EBD8AE
:101B900002E000BF00E000BFFFF712FFFA2001F0F3
:101BA000A7FAFFF705FF094B1B78DBB2002B06D124
:101BB0003A8F4FF0FF33796B074804F001F900BF0B
:101BC0002837BD4680BD00BF1F85EB5108040020AB
:101BD0006666863F3333733F8803002080B586B046
:101BE00004AF0346FB80F88809230293074B019357
:101BF0000023009340F2152341F6BF3247F6FF71F0
:101C0000FFF75CFF00BF0837BD4680BDC000002065
:101C100080B586B004AF0346FB80F88809230293A1
:101C2000074B01930123009340F20B2341F6FA4244
:101C300047F6FF71FFF742FF00BF0837BD4680BD82
:101C4000CC00002080B586B004AF0346FB80F88846
:101C500009230293074B019300230093002341F6CD
:101C60000E4243F23331FFF729FF00BF0837BD466C
:101C700080BD00BFD800002080B586B004AF034609
:101C8000FB80F88809230293074B019301230093FB
:101C9000002341F60E4243F23331FFF70FFF00BF3E
:101CA0000837BD4680BD00BFE400002080B590B07D
:101CB00000AF03460A46FB711346BB804FF000039A
:101CC000FB634FF00003BB63BB8807EE903AF8EE6E
:101CD000677AB0EE087A77EEC77AC7ED0D7A824B55
:101CE00000221A70D7ED0D7AB7EE007AF4EEC77ABB
:101CF000F1EE10FA02D54FF07E537B6300F066FBE5
:101D00000023FB6223E00023FB820023BB8200232D
:101D10007B8207F1120207F1140107F1160318463E
:101D200000F06CFD0346002B0BD1B7F9123007EE23
:101D3000903AF8EEE77A97ED0F7A77EE277AC7EDCB
:101D40000F7A052001F0D4F9FB6A0133FB62FB6ACC
:101D5000272BD8DD97ED0F7ADFED646AC7EE267A80
:101D6000C7ED0F7AFB79012B08D146F68430FFF7D7
:101D7000A9FD44F2AD70FFF707FE07E044F2AD7035
:101D8000FFF7B4FD46F68430FFF7EAFDBB884FF459
:101D9000FA5202FB03F35B08554AA2FB03235B09DB
:101DA0007B6201F099F938623B6A3B636CE0002387
:101DB0003B820023FB810023BB814B4B1B78DBB2B2
:101DC000002B6AD107F10C0207F10E0107F1100395
:101DD000184600F013FD0346002B54D101F07CF9A6
:101DE000F861FA693B6BD31A07EE903AF8EE677A1E
:101DF0009FED407A67EE877AC7ED0A7AFB693B630D
:101E0000D7ED0A7AF5EEC07AF1EE10FA08D9D7EDDF
:101E10000A7A9FED397AF4EEC77AF1EE10FA01DD15
:101E2000364BBB62B7F90C3007EE903AB8EEE77A62
:101E3000D7ED0F7A77EE677AC7ED067A97ED067AD7
:101E4000D7ED0A7A67EE277A97ED0E7A77EE277A42
:101E5000C7ED0E7AFB79012B09D197ED0E7AD7EDFC
:101E60000D7AB4EEE77AF1EE10FA18DA0CE0D7ED5D
:101E70000D7AF1EE677A97ED0E7AB4EEE77AF1EE2D
:101E800010FA0ED900E000BF01F026F902463B6AC5
:101E9000D31A7A6A9A428AD804E000BF02E000BFEF
:101EA00000E000BFFFF78CFDFA2001F021F9FFF7F9
:101EB0007FFD0D4B1B78DBB2002B11D1FB79012B81
:101EC00007D14FF0FF3309220D490E4803F078FF88
:101ED00006E04FF0FF3309220B490A4803F070FF78
:101EE00000BF4037BD4680BD0804002000002042EE
:101EF000B7600BB66F12833ACDCC4C3D0AD7233C6A
:101F0000F000002088030020FC00002080B592B083
:101F100000AF03460A46FB711346BB804FF0000337
:101F20007B644FF000033B64BB8807EE903AF8EE09
:101F3000677A9FED957A67EE877AC7ED0F7A934BB4
:101F400000221A70D7ED0F7AB7EE007AF4EEC77A56
:101F5000F1EE10FA02D54FF07E53FB63FB79032BB1
:101F600002D0FB79042B01D1012300E000237B6226
:101F7000FB79012B04D1864B7B6309237B8613E01D
:101F8000FB79022B04D1834B7B6309237B860BE017
:101F9000FB79032B04D1804B7B6309237B8603E011
:101FA0007E4B7B6309237B8600F010FA0023FB62E3
:101FB00023E000237B8200233B820023FB8107F187
:101FC0000E0207F1100107F11203184600F016FC8B
:101FD0000346002B0BD1B7F90E3007EE903AF8EE1E
:101FE000E77A97ED117A77EE277AC7ED117A052017
:101FF00001F07EF8FB6A0133FB62FB6A272BD8DD18
:1020000097ED117ADFED666AC7EE267AC7ED117A91
:10201000FB79012B02D0FB79032B02D100F010F9E0
:1020200001E000F015F9C82001F062F87B6A002B8E
:1020300008D143F23330FFF745FC43F23330FFF76A
:102040008FFC07E043F23330FFF750FC43F23330AC
:10205000FFF79AFCBB884FF4FA5202FB03F35B08CC
:10206000504AA2FB03235B093B6201F035F8F8619B
:10207000FB69BB635FE00023BB8100237B810023FE
:102080003B81424B1B78DBB2002B5DD107F108028C
:1020900007F10A0107F10C03184600F0AFFB0346F5
:1020A000002B47D101F018F8B861BA69BB6BD31A9D
:1020B00007EE903AF8EE677A9FED3B7A67EE877A03
:1020C000C7ED0A7ABB69BB63D7ED0A7AF5EEC07A31
:1020D000F1EE10FA08D9D7ED0A7A9FED347AF4EED2
:1020E000C77AF1EE10FA01DD314BBB62B7F9083067
:1020F00007EE903AB8EEE77AD7ED117A77EE677A85
:10210000C7ED057A97ED057AD7ED0A7A67EE277A5B
:1021100097ED107A77EE277AC7ED107AD7ED107A1F
:10212000F0EEE77A97ED0F7AB4EEE77AF1EE10FA77
:102130000CD900E000BF00F0CFFF0246FB69D31AC4
:102140003A6A9A4297D802E000BF00E000BFFFF76A
:1021500037FCFA2000F0CCFFFFF72AFC00F050F823
:10216000C82000F0C5FF094B1B78DBB2002B06D15D
:102170007A8E4FF0FF33796B0E4803F021FE00BFDB
:102180004837BD4680BD00BFE17A743F0804002097
:102190000801002014010020200100202C01002053
:1021A00000002042B7600BB66F12833ACDCC4C3D95
:1021B0000AD7233C8803002080B483B000AF786046
:1021C0007B68B3F57A7F02D24FF47A737B607B68C9
:1021D000B3F5FA6F02D94FF4FA637B60064A7B6865
:1021E0001360064B1B68044A12689A6300BF0C37E1
:1021F000BD465DF8047B704750010020EC020020D2
:1022000080B500AF40F2DC50FFF7D6FF00BF80BDC5
:1022100080B500AF034B1B68643B1846FFF7CCFF4B
:1022200000BF80BD5001002080B500AF034B1B688C
:1022300064331846FFF7C0FF00BF80BD5001002087
:1022400080B500AF4FF47A70FFF7B6FF00BF80BDD6
:1022500080B500AF4FF4FA60FFF7AEFF00BF80BD5E
:1022600080B500AF124B134A1A60114B124A5A60E4
:102270000F4B00229A600E4B0022DA600C4B4FF499
:1022800080421A610A4B00225A61094B00229A616E
:10229000074B0022DA61064B00221A62044801F063
:1022A000BFFA0346002B01D000F0D2FB00BF80BD77
:1022B0003403002000580040A086010080B588B09B
:1022C00004AF78600023FB730023BB737B68002B93
:1022D00002D07B6800221A706423029301230193C9
:1022E00007F10F03009301237F22D021134801F04F
:1022F000DBFB0346002B02D04FF0FF3319E06423D1
:1023000002930123019307F10E030093012300229E
:10231000D0210A4801F0C2FC0346002B02D04FF046
:10232000FF3306E07B68002B02D0BA7B7B681A7013
:10233000002318461037BD4680BD00BF340300207F
:1023400080B588B004AF0346FB71FB791B01DBB29B
:10235000FB73642302930123019307F10F0300939E
:1023600001237F22D021074801F09EFB0346002B6A
:1023700002D04FF0FF3300E0002318461037BD466F
:1023800080BD00BF3403002080B586B004AF034693
:102390000A46FB711346BB71FB799AB26423029320
:1023A00001230193BB1D00930123D021064801F0B6
:1023B0007BFB0346002B02D04FF0FF3300E00023ED
:1023C00018460837BD4680BD3403002080B582B072
:1023D00000AF0023FB71424B1B78002B01D0002380
:1023E00079E0FB1D1846FFF769FF0346002B02D179
:1023F000FB79EA2B02D04FF0FF336CE00020FFF7AF
:102400009FFF0346002B02D04FF0FF3363E0802193
:102410000620FFF7B9FF0346002B02D04FF0FF3331
:1024200059E0642000F064FE0020FFF789FF0346B6
:10243000002B02D04FF0FF334DE001210620FFF7C3
:10244000A3FF0346002B02D04FF0FF3343E00A20E6
:1024500000F04EFE00210520FFF796FF0346002BFB
:1024600002D04FF0FF3336E000210720FFF78CFF4A
:102470000346002B02D04FF0FF332CE01E2000F06B
:1024800037FE0220FFF75CFF0346002B02D04FF01F
:10249000FF3320E000210020FFF776FF0346002BEA
:1024A00002D04FF0FF3316E007210120FFF76CFF49
:1024B0000346002B02D04FF0FF330CE00020FFF763
:1024C0003FFF0346002B02D04FF0FF3303E0044BE5
:1024D00001221A70002318460837BD4680BD00BF90
:1024E0000904002080B58CB000AF002387F82B30A2
:1024F00007F12B031846FFF7E1FE0346002B0CD132
:1025000097F82B30EA2B08D197F82B3038460E4A33
:10251000282104F075FCF86207E097F82B30384664
:102520000A4A282104F06CFCF862FB6A002B07DDE4
:10253000FB6A9AB239464FF0FF33054803F040FC7E
:1025400000BF3037BD4680BD90790008A0790008F3
:1025500088030020F0B5ABB008AF0023A7F88230A5
:102560000023A7F880300023A7F87E300023A7F8C7
:102570007C300023A7F87A300023A7F878300023B6
:10258000A7F876300023A7F874300023A7F872303C
:10259000FFF71CFF07F1780207F17A0107F17C03CE
:1025A000184600F08BF80346002B63D107F1720246
:1025B00007F1740107F17603184600F0CFF80346DF
:1025C000002B57D1B7F97C301A46642302FB03F382
:1025D000364A82FB03125212DB17D31AA7F8823055
:1025E000B7F97A301A46642302FB03F32F4A82FBC1
:1025F00003125212DB17D31AA7F88030B7F97830DC
:102600001A46642302FB03F3284A82FB0312521288
:10261000DB17D31AA7F87E30B7F98210B7F98030EC
:10262000FB60B7F97E20B7F97C000446B7F97A0061
:102630000546B7F978000646B7F97600B860B7F9ED
:1026400074007860B7F97200034607F11000079331
:102650007B680693BB6805930496039502940192E8
:10266000FB6800930B46124A602104F0C9FBC7F8CF
:10267000840008E007F110030E4A6021184604F0B8
:10268000BFFBC7F88400D7F88430002B09DDD7F8EA
:1026900084309AB207F110014FF0FF33064803F07F
:1026A0008FFB00BF8C37BD46F0BD00BFFF04EC4F71
:1026B000B0790008EC7900088803002080B58AB062
:1026C00004AFF860B9607A600020FFF739FE034676
:1026D000002B02D04FF0FF333AE06423029306232D
:1026E000019307F11003009301233322D0211A48EC
:1026F00001F0D4FA0346002B02D04FF0FF3327E05D
:10270000FB68002B09D03B7C1BB21B021AB27B7CFE
:102710001BB213431AB2FB681A80BB68002B09D0A6
:10272000BB7C1BB21B021AB2FB7C1BB213431AB256
:10273000BB681A807B68002B09D03B7D1BB21B0253
:102740001AB27B7D1BB213431AB27B681A80002336
:1027500018461837BD4680BD3403002080B58AB0C6
:1027600004AFF860B9607A600020FFF7E9FD034626
:10277000002B02D04FF0FF333AE06423029306238C
:10278000019307F11003009301232D22D0211A4851
:1027900001F084FA0346002B02D04FF0FF3327E00C
:1027A000FB68002B09D03B7C1BB21B021AB27B7C5E
:1027B0001BB213431AB2FB681A80BB68002B09D006
:1027C000BB7C1BB21B021AB2FB7C1BB213431AB2B6
:1027D000BB681A807B68002B09D03B7D1BB21B02B3
:1027E0001AB27B7D1BB213431AB27B681A80002396
:1027F00018461837BD4680BD3403002080B586B02A
:1028000000AFF860B9607A6007F1120207F11401B5
:1028100007F116031846FFF751FF0346002B02D0BD
:102820004FF0FF3336E0FB68002B0ED0B7F91630BF
:102830001A46642302FB03F3184A82FB0312521266
:10284000DB17D31A1AB2FB681A80BB68002B0ED0B4
:10285000B7F914301A46642302FB03F30F4A82FBD4
:1028600003125212DB17D31A1AB2BB681A807B68A4
:10287000002B0ED0B7F912301A46642302FB03F383
:10288000064A82FB03125212DB17D31A1AB27B6874
:102890001A80002318461837BD4680BDFF04EC4F50
:1028A00080B58CB000AF07F10C032422002118463C
:1028B00004F060FB3B1D00221A605A60214B4FF070
:1028C00080421A601F4B00225A601E4B00229A6001
:1028D0001C4B4FF6FF72DA601A4B00221A61194B3B
:1028E00000229A610323FB6000233B6101237B618B
:1028F0000023BB610423FB6100233B6201237B6255
:102900000023BB620423FB6207F10C0319460D4848
:1029100002F018FD0346002B01D000F099F80023C7
:102920007B600023BB603B1D1946064803F07CF921
:102930000346002B01D000F08BF800BF3037BD46B6
:1029400080BD00BFCC01002080B58CB000AF07F186
:102950000C0324220021184604F00CFB3B1D00222E
:102960001A605A60204B214A1A601F4B00225A609D
:102970001D4B00229A601C4B4FF6FF72DA601A4B17
:1029800000221A61184B00229A610323FB60002386
:102990003B6101237B610023BB610423FB610023B6
:1029A0003B6201237B620023BB620423FB6207F1CD
:1029B0000C0319460C4802F0C5FC0346002B01D05D
:1029C00000F046F800237B600023BB603B1D1946E6
:1029D000054803F029F90346002B01D000F038F830
:1029E00000BF3037BD4680BD140200200004004007
:1029F00080B400AF044B1B685B6A1BB21846BD462F
:102A00005DF8047B704700BFCC01002080B400AFAC
:102A1000044B1B685B6A1BB21846BD465DF8047B1D
:102A2000704700BF1402002080B400AF064B1B6843
:102A300000225A62054B1B6800225A6200BFBD4645
:102A40005DF8047B704700BFCC0100201402002019
:102A500080B400AF72B600BF00BFFDE780B483B0A2
:102A600000AF00237B60104B5B6C0F4A43F4804344
:102A700053640D4B5B6C03F480437B607B680023E5
:102A80003B60094B1B6C084A43F080531364064BB0
:102A90001B6C03F080533B603B6800BF0C37BD46A6
:102AA0005DF8047B704700BF0038024080B487B0F7
:102AB00000AF78607B681B681F4A93420ED10023E9
:102AC0007B611E4B1B6C1D4A43F0040313641B4BBC
:102AD0001B6C03F004037B617B6926E07B681B6849
:102AE000174A93420ED100233B61144B5B6C134A8F
:102AF00043F480335364114B5B6C03F480333B61CC
:102B00003B6912E07B681B680E4A93420DD100239B
:102B1000FB600A4B1B6C094A43F040031364074BEC
:102B20001B6C03F04003FB60FB6800BF1C37BD4615
:102B30005DF8047B704700BF000800400038024089
:102B4000004001400018004080B58CB000AF7860B4
:102B500007F11C0300221A605A609A60DA601A6159
:102B60007B681B68B3F1804F45D10023BB613C4BB0
:102B70001B6C3B4A43F001031364394B1B6C03F09D
:102B80000103BB61BB6900237B61354B1B6B344A7E
:102B900043F001031363324B1B6B03F001037B61B2
:102BA0007B6900233B612E4B1B6B2D4A43F00203D4
:102BB00013632B4B1B6B03F002033B613B694FF428
:102BC0000043FB6102233B6201237B620023BB6263
:102BD0000123FB6207F11C031946224800F050FC58
:102BE0000823FB610123FB6207F11C0319461E4801
:102BF00000F046FC30E07B681B681C4A93422BD1F6
:102C00000023FB60164B1B6C154A43F00203136450
:102C1000134B1B6C03F00203FB60FB680023BB60DB
:102C20000F4B1B6B0E4A43F0020313630C4B1B6BE1
:102C300003F00203BB60BB683023FB6102233B62ED
:102C400001237B620023BB620223FB6207F11C03AA
:102C50001946054800F014FC00BF3037BD4680BD62
:102C6000003802400000024000040240000400401E
:102C700080B58AB000AF786007F1140300221A60B3
:102C80005A609A60DA601A617B681B68374A93421F
:102C90001FD100233B61364B1B6B354A43F00203C7
:102CA0001363334B1B6B03F002033B613B694FF42F
:102CB00040737B610223BB610023FB6100233B6205
:102CC00002237B6207F1140319462A4800F0D8FB5F
:102CD00047E07B681B68284A93421ED10023FB60B3
:102CE000234B1B6B224A43F010031363204B1B6BD7
:102CF00003F01003FB60FB6860237B610223BB6170
:102D00000023FB6100233B6203237B6207F1140372
:102D100019461A4800F0B4FB23E07B681B68184A88
:102D200093421ED10023BB60114B1B6B104A43F032
:102D3000020313630E4B1B6B03F00203BB60BB6803
:102D40004FF400437B610223BB610023FB6100233E
:102D50003B6209237B6207F114031946054800F022
:102D60008FFB00BF2837BD4680BD00BF0008004074
:102D700000380240000402400040014000100240C0
:102D80000018004080B58AB000AF786007F11403E6
:102D900000221A605A609A60DA601A617B681B68C8
:102DA0001D4A934234D100233B611C4B1B6C1B4AD0
:102DB00043F480231364194B1B6C03F480233B61A1
:102DC0003B690023FB60154B1B6B144A43F008035F
:102DD0001363124B1B6B03F00803FB60FB684FF49B
:102DE00040737B610223BB610023FB6103233B62D1
:102DF00007237B6207F114031946094800F040FBE2
:102E000000220021272000F072FA272000F08BFA20
:102E100000BF2837BD4680BD004800400038024052
:102E2000000C024080B58AB000AF786007F114034F
:102E300000221A605A609A60DA601A617B681B6827
:102E4000194A93422CD100233B61184B1B6B174A44
:102E500043F002031363154B1B6B03F002033B614A
:102E60003B690023FB60114B1B6C104A43F4800349
:102E700013640E4B1B6C03F48003FB60FB684FF480
:102E800040637B611223BB610123FB6103233B622F
:102E900004237B6207F114031946054800F0F0FA99
:102EA00000BF2837BD4680BD0058004000380240B2
:102EB0000004024080B400AF00BFFDE780B400AF63
:102EC00000BFFDE780B400AF00BFFDE780B400AFF6
:102ED00000BFFDE780B400AF00BFFDE780B400AFE6
:102EE00000BFBD465DF8047B704780B400AF00BFF3
:102EF000BD465DF8047B704780B400AF00BFBD469F
:102F00005DF8047B704780B500AF00F0D1F800BFDA
:102F100080BD000080B500AF024803F001F800BF9B
:102F200080BD00BF8803002080B586B000AF786008
:102F3000144A154BD31A7B617B693B61134B1B68A9
:102F4000002B02D1114B124A1A60104B1A687B6891
:102F500013443A699A4207D204F026F803460C2239
:102F60001A604FF0FF3309E0084B1B68FB60074B0A
:102F70001A687B681344054A1360FB6818461837C3
:102F8000BD4680BD00000220000400000C040020AB
:102F90006005002080B400AF064BD3F88830054AA6
:102FA00043F47003C2F8883000BFBD465DF8047B6F
:102FB000704700BF00ED00E0DFF834D0FFF7EAFF14
:102FC0000C480D490D4A002302E0D458C450043384
:102FD000C4188C42F9D30A4A0A4C002301E013605A
:102FE0000432A242FBD303F0E5FFFDF7E7FA704796
:102FF0000000022000000020B0010020547B0008E7
:10300000B00100205C050020FEE7000080B500AFA5
:103010000E4B1B680D4A43F4007313600B4B1B6887
:103020000A4A43F480631360084B1B68074A43F461
:1030300080731360032000F04FF90F2000F008F8B0
:10304000FFF70CFD0023184680BD00BF003C024086
:1030500080B582B000AF7860124B1A68124B1B78B3
:1030600019464FF47A73B3FBF1F3B2FBF3F318464E
:1030700000F067F90346002B01D001230EE07B68C6
:103080000F2B0AD8002279684FF0FF3000F02FF99B
:10309000064A7B681360002300E0012318460837C6
:1030A000BD4680BD540100205C0100205801002075
:1030B00080B400AF064B1B781A46064B1B681344BE
:1030C000044A136000BFBD465DF8047B704700BF33
:1030D0005C0100201004002080B400AF034B1B688B
:1030E0001846BD465DF8047B704700BF1004002001
:1030F00080B584B000AF7860FFF7EEFFB8607B6802
:10310000FB60FB68B3F1FF3F05D00A4B1B781A4602
:10311000FB681344FB6000BFFFF7DEFF0246BB689D
:10312000D31AFA689A42F7D800BF00BF1037BD46DD
:1031300080BD00BF5C01002080B485B000AF786026
:103140007B6803F00703FB600C4BDB68BB60BA686D
:103150004FF6FF031340BB60FB681A02BB681343C2
:1031600043F0BF6343F40033BB60044ABB68D360E1
:1031700000BF1437BD465DF8047B704700ED00E0EA
:1031800080B400AF044BDB681B0A03F0070318464A
:10319000BD465DF8047B704700ED00E080B483B06D
:1031A00000AF0346FB7197F90730002B0BDBFB796F
:1031B00003F01F02074997F907305B09012000FA65
:1031C00002F241F8232000BF0C37BD465DF8047BB6
:1031D000704700BF00E100E080B483B000AF034659
:1031E0003960FB7197F90730002B0ADB3B68DAB2D4
:1031F0000C4997F907301201D2B20B4483F800232F
:103200000AE03B68DAB20849FB7903F00F03043B9C
:103210001201D2B20B441A7600BF0C37BD465DF8DE
:10322000047B704700E100E000ED00E080B489B06D
:1032300000AFF860B9607A60FB6803F00703FB61D8
:10324000FB69C3F10703042B28BF0423BB61FB699F
:103250000433062B02D9FB69033B00E000237B61AA
:103260004FF0FF32BB6902FA03F3DA43BB681A403E
:103270007B699A404FF0FF317B6901FA03F3D94330
:103280007B680B40134318462437BD465DF8047B2A
:103290007047000080B582B000AF78607B68013B6A
:1032A000B3F1807F01D301230FE00A4A7B68013B21
:1032B00053600F214FF0FF30FFF78EFF054B0022C8
:1032C0009A60044B07221A60002318460837BD464F
:1032D00080BD00BF10E000E080B582B000AF786034
:1032E0007868FFF729FF00BF0837BD4680BD80B56D
:1032F00086B000AF0346B9607A60FB7300237B6140
:10330000FFF73EFF78617A68B9687869FFF78EFF4A
:10331000024697F90F3011461846FFF75DFF00BFD0
:103320001837BD4680BD80B582B000AF0346FB7143
:1033300097F907301846FFF731FF00BF0837BD4641
:1033400080BD80B582B000AF78607868FFF7A2FFDB
:10335000034618460837BD4680BD80B584B000AF2F
:1033600078607B689B6DFB60FFF7B6FEB8607B689A
:1033700093F83530DBB2022B08D07B6880225A6587
:103380007B68002283F83420012352E07B681B68AD
:103390001A687B681B6822F016021A607B681B683B
:1033A0005A697B681B6822F080025A617B681B6C3B
:1033B000002B03D17B689B6C002B07D07B681B68BC
:1033C0001A687B681B6822F008021A607B681B6819
:1033D0001A687B681B6822F001021A6013E0FFF78D
:1033E0007BFE0246BB68D31A052B0CD97B682022D2
:1033F0005A657B68032283F835207B68002283F8B6
:103400003420032315E07B681B681B6803F001036D
:10341000002BE4D17B68DB6D3F229A40FB689A6009
:103420007B68012283F835207B68002283F83420F2
:10343000002318461037BD4680BD80B483B000AF6E
:1034400078607B6893F83530DBB2022B04D07B6860
:1034500080225A6501230CE07B68052283F8352021
:103460007B681B681A687B681B6822F001021A607F
:10347000002318460C37BD465DF8047B70470000FA
:1034800080B489B000AF7860396000237B6100238D
:103490003B610023BB610023FB616BE10122FB69FF
:1034A00002FA03F37B613B681B687A6913403B6156
:1034B0003A697B699A4240F05A813B685B6803F045
:1034C0000303012B05D03B685B6803F00303022B69
:1034D00030D17B689B68BB61FB695B00032202FA09
:1034E00003F3DB43BA691340BB613B68DA68FB69ED
:1034F0005B0002FA03F3BA691343BB617B68BA69E4
:103500009A607B685B68BB610122FB6902FA03F386
:10351000DB43BA691340BB613B685B681B0903F07E
:103520000102FB6902FA03F3BA691343BB617B68CA
:10353000BA695A603B685B6803F00303032B17D03A
:103540007B68DB68BB61FB695B00032202FA03F363
:10355000DB43BA691340BB613B689A68FB695B0057
:1035600002FA03F3BA691343BB617B68BA69DA6094
:103570003B685B6803F00303022B23D1FB69DA0885
:103580007B68083253F82230BB61FB6903F0070304
:103590009B000F2202FA03F3DB43BA691340BB61BD
:1035A0003B681A69FB6903F007039B0002FA03F307
:1035B000BA691343BB61FB69DA087B680832B969F1
:1035C00043F822107B681B68BB61FB695B00032228
:1035D00002FA03F3DB43BA691340BB613B685B68E3
:1035E00003F00302FB695B0002FA03F3BA691343B9
:1035F000BB617B68BA691A603B685B6803F440335F
:10360000002B00F0B4800023FB60604B5B6C5F4AD2
:1036100043F4804353645D4B5B6C03F48043FB6075
:10362000FB685B4AFB699B08023352F82330BB619D
:10363000FB6903F003039B000F2202FA03F3DB4351
:10364000BA691340BB617B68524A93422BD07B68B6
:10365000514A934225D07B68504A93421FD07B68E1
:103660004F4A934219D07B684E4A934213D07B68ED
:103670004D4A93420DD07B684C4A934207D07B68F9
:103680004B4A934201D107230EE008230CE00623A6
:103690000AE0052308E0042306E0032304E00223F4
:1036A00002E0012300E00023FA6902F00302920025
:1036B0009340BA691343BB613549FB699B080233E8
:1036C000BA6941F823203B4B9B68BB613B69DB43F4
:1036D000BA691340BB613B685B6803F48013002B3D
:1036E00003D0BA693B691343BB61324ABB6993603B
:1036F000304BDB68BB613B69DB43BA691340BB619C
:103700003B685B6803F40013002B03D0BA693B6984
:103710001343BB61274ABB69D360264B5B68BB611F
:103720003B69DB43BA691340BB613B685B6803F4E8
:103730000033002B03D0BA693B691343BB611D4AB8
:10374000BB6953601B4B1B68BB613B69DB43BA69B8
:103750001340BB613B685B6803F48033002B03D0EC
:10376000BA693B691343BB61124ABB691360FB69C9
:103770000133FB61FB690F2B7FF690AE00BF00BFEA
:103780002437BD465DF8047B704700BF0038024017
:1037900000380140000002400004024000080240DE
:1037A000000C0240001002400014024000180240C9
:1037B000001C0240003C014080B483B000AF786040
:1037C0000B467B8013467B707B78002B03D07A8876
:1037D0007B689A6103E07B881A047B689A6100BF6A
:1037E0000C37BD465DF8047B704780B485B000AFF0
:1037F00078600B467B807B685B69FB607A88FB683E
:1038000013401A04FB68D9437B880B401A437B683A
:103810009A6100BF1437BD465DF8047B7047000015
:1038200080B584B000AF78607B68002B01D10123A4
:103830002BE17B6893F83D30DBB2002B06D17B682F
:10384000002283F83C207868FFF7ECFA7B6824229A
:1038500083F83D207B681B681A687B681B6822F030
:1038600001021A607B681B681A687B681B6842F457
:1038700000421A607B681B681A687B681B6822F428
:1038800000421A6001F01EFCF8607B685B68814AA8
:10389000934207D8FB68804A934294BF01230023D8
:1038A000DBB206E0FB687D4A934294BF012300230C
:1038B000DBB2002B01D00123E7E0FB68784AA2FBD2
:1038C00003239B0CBB607B681B685B6823F03F0194
:1038D0007B681B68BA680A435A607B681B681B6A6E
:1038E00023F03F017B685B686A4A934202D8BB6859
:1038F000013309E0BB684FF4967202FB03F3694A97
:10390000A2FB03239B0901337A6812680B431362FD
:103910007B681B68DB6923F44F4222F0FF027B685F
:103920005B685C498B4219D8FB68591E7B685B68F1
:103930005B00B1FBF3F3591C40F6FC730B40002B0A
:103940000AD0FB68591E7B685B685B00B1FBF3F330
:103950000133C3F30B0351E004234FE07B689B6802
:10396000002B11D1FB68581E7B6859680B465B0021
:103970000B44B0FBF3F30133C3F30B03002B0CBF79
:1039800001230023DBB212E0FB68581E7B685968F4
:103990000B469B000B4499000B44B0FBF3F301333F
:1039A000C3F30B03002B0CBF01230023DBB2002B5E
:1039B00001D0012322E07B689B68002B0ED1FB68BD
:1039C000581E7B6859680B465B000B44B0FBF3F351
:1039D0000133C3F30B0343F400430FE0FB68581EAD
:1039E0007B6859680B469B000B4499000B44B0FB65
:1039F000F3F30133C3F30B0343F4404379680968DD
:103A00001343CB617B681B681B6823F0C0017B6894
:103A1000DA697B681B6A1A437B681B680A431A6071
:103A20007B681B689B6823F4034323F0FF037A68D9
:103A300011697A68D26811437A6812680B439360FF
:103A40007B681B68DB6823F0FF017B685A697B6831
:103A50009B691A437B681B680A43DA607B681B68B2
:103A60001A687B681B6842F001021A607B680022BA
:103A70001A647B68202283F83D207B6800221A6349
:103A80007B68002283F83E20002318461037BD468D
:103A900080BD00BFA08601007F841E00FF083D009E
:103AA00083DE1B43D34D621080B588B002AFF8604F
:103AB000084611461A4603467B810B463B81134656
:103AC000FB80FFF709FB7861FB6893F83D30DBB2C0
:103AD000202B40F0D9807B690093192301226D4986
:103AE000F86800F08BFC0346002B01D00223CCE0E9
:103AF000FB6893F83C30012B01D10223C5E0FB6841
:103B0000012283F83C20FB681B681B6803F001035B
:103B1000012B07D0FB681B681A68FB681B6842F022
:103B200001021A60FB681B681A68FB681B6822F4B4
:103B300000621A60FB68212283F83D20FB68402266
:103B400083F83E20FB6800221A64FB683A6A5A62D6
:103B5000FB68BA8C5A85FB685B8D9AB2FB681A8544
:103B6000FB684D4ADA62F8883A8979897B69019362
:103B7000BB6A00930346F86800F0C2FA0346002BC4
:103B800052D0012381E07A69B96AF86800F050FDEB
:103B90000346002B0DD0FB681B6C042B07D1FB6880
:103BA0001B681A68FB681B6842F400721A600123E4
:103BB0006BE0FB685B6A1A78FB681B681A61FB683C
:103BC0005B6A5A1CFB685A62FB681B8D013B9AB208
:103BD000FB681A85FB685B8D9BB2013B9AB2FB6860
:103BE0005A85FB681B685B6903F00403042B1BD137
:103BF000FB681B8D002B17D0FB685B6A1A78FB688B
:103C00001B681A61FB685B6A5A1CFB685A62FB6896
:103C10001B8D013B9AB2FB681A85FB685B8D9BB2DA
:103C2000013B9AB2FB685A85FB681B8D002BAAD119
:103C30007A69B96AF86800F043FD0346002B0DD09D
:103C4000FB681B6C042B07D1FB681B681A68FB68B8
:103C50001B6842F400721A60012316E0FB681B68BF
:103C60001A68FB681B6842F400721A60FB68202225
:103C700083F83D20FB68002283F83E20FB68002289
:103C800083F83C20002300E0022318461837BD4685
:103C900080BD00BF020010000000FFFF80B58CB0A7
:103CA00002AFF860084611461A4603467B810B4670
:103CB0003B811346FB80FFF70FFA7862FB6893F8AD
:103CC0003D30DBB2202B40F014827B6A0093192335
:103CD00001227B49F86800F091FB0346002B01D0DC
:103CE000022307E2FB6893F83C30012B01D1022349
:103CF00000E2FB68012283F83C20FB681B681B681C
:103D000003F00103012B07D0FB681B681A68FB68EE
:103D10001B6842F001021A60FB681B681A68FB68A6
:103D20001B6822F400621A60FB68222283F83D209F
:103D3000FB68402283F83E20FB6800221A64FB687F
:103D40003A6B5A62FB68BA8E5A85FB685B8D9AB2F1
:103D5000FB681A85FB685B4ADA62F8883A897989D8
:103D60007B6A0193BB6B00930346F86800F05EFA30
:103D70000346002B01D00123BCE1FB681B8D002B07
:103D800013D100233B62FB681B685B693B62FB68E5
:103D90001B689B693B623B6AFB681B681A68FB688F
:103DA0001B6842F400721A6090E1FB681B8D012BC6
:103DB0001BD1FB681B681A68FB681B6822F48062D1
:103DC0001A600023FB61FB681B685B69FB61FB6891
:103DD0001B689B69FB61FB69FB681B681A68FB68D1
:103DE0001B6842F400721A6070E1FB681B8D022BA5
:103DF0001BD1FB681B681A68FB681B6822F4806291
:103E00001A60FB681B681A68FB681B6842F4006252
:103E10001A600023BB61FB681B685B69BB61FB68C0
:103E20001B689B69BB61BB6950E100237B61FB6838
:103E30001B685B697B61FB681B689B697B617B69B5
:103E400044E1FB681B8D032B00F2F180FB681B8DA6
:103E5000012B23D17A6AB96BF86800F079FC03462C
:103E6000002B01D0012345E1FB681B681A69FB6840
:103E70005B6AD2B21A70FB685B6A5A1CFB685A62B2
:103E8000FB681B8D013B9AB2FB681A85FB685B8D52
:103E90009BB2013B9AB2FB685A8517E1FB681B8D08
:103EA000022B4ED17B6A0093BB6B00220649F86857
:103EB00000F0A4FA0346002B08D001231AE100BF4A
:103EC000020010000000FFFF04000100FB681B68F7
:103ED0001A68FB681B6842F400721A60FB681B6872
:103EE0001A69FB685B6AD2B21A70FB685B6A5A1C7B
:103EF000FB685A62FB681B8D013B9AB2FB681A850E
:103F0000FB685B8D9BB2013B9AB2FB685A85FB68EC
:103F10001B681A69FB685B6AD2B21A70FB685B6A3D
:103F20005A1CFB685A62FB681B8D013B9AB2FB6806
:103F30001A85FB685B8D9BB2013B9AB2FB685A8580
:103F4000C4E07B6A0093BB6B00226C49F86800F008
:103F500055FA0346002B01D00123CBE0FB681B6818
:103F60001A68FB681B6822F480621A60FB681B6891
:103F70001A69FB685B6AD2B21A70FB685B6A5A1CEA
:103F8000FB685A62FB681B8D013B9AB2FB681A857D
:103F9000FB685B8D9BB2013B9AB2FB685A857B6ADA
:103FA0000093BB6B00225549F86800F027FA0346DE
:103FB000002B01D001239DE0FB681B681A68FB6899
:103FC0001B6842F400721A60FB681B681A69FB6880
:103FD0005B6AD2B21A70FB685B6A5A1CFB685A6251
:103FE000FB681B8D013B9AB2FB681A85FB685B8DF1
:103FF0009BB2013B9AB2FB685A85FB681B681A6941
:10400000FB685B6AD2B21A70FB685B6A5A1CFB6879
:104010005A62FB681B8D013B9AB2FB681A85FB68EC
:104020005B8D9BB2013B9AB2FB685A854EE07A6A7F
:10403000B96BF86800F08CFB0346002B01D001231C
:1040400058E0FB681B681A69FB685B6AD2B21A7099
:10405000FB685B6A5A1CFB685A62FB681B8D013B5C
:104060009AB2FB681A85FB685B8D9BB2013B9AB2E2
:10407000FB685A85FB681B685B6903F00403042B2B
:1040800024D1FB681B8D032B07D1FB681B681A68C2
:10409000FB681B6822F480621A60FB681B681A695F
:1040A000FB685B6AD2B21A70FB685B6A5A1CFB68D9
:1040B0005A62FB681B8D013B9AB2FB681A85FB684C
:1040C0005B8D9BB2013B9AB2FB685A85FB681B8DE6
:1040D000002B7FF4B6AEFB68202283F83D20FB68FE
:1040E000002283F83E20FB68002283F83C20002356
:1040F00000E0022318462837BD4680BD04000100B9
:1041000080B588B002AFF860084611461A460346EB
:104110007B810B463B811346FB80FB681B681A685A
:10412000FB681B6842F480721A607B6A00933B6AEA
:1041300000224FF00111F86800F060F90346002BEF
:104140000DD0FB681B681B6803F48073B3F5807F98
:1041500003D1FB684FF400721A6403235FE07B898C
:10416000DBB21A46FB681B6802F0FE021A617B6A2A
:104170003A6A2D49F86800F0BBF90346002B01D0DC
:1041800001234CE000237B61FB681B685B697B615A
:10419000FB681B689B697B617B697A6A396AF8688E
:1041A00000F046FA0346002B0DD0FB681B6C042B75
:1041B00007D1FB681B681A68FB681B6842F4007231
:1041C0001A6001232BE0FB88012B05D13B89DAB271
:1041D000FB681B681A6121E03B891B0A9BB2DAB2BB
:1041E000FB681B681A617A6A396AF86800F020FA7D
:1041F0000346002B0DD0FB681B6C042B07D1FB681A
:104200001B681A68FB681B6842F400721A6001237D
:1042100005E03B89DAB2FB681B681A610023184687
:104220001837BD4680BD00BF0200010080B588B0D0
:1042300002AFF860084611461A4603467B810B46DA
:104240003B811346FB80FB681B681A68FB681B6890
:1042500042F480621A60FB681B681A68FB681B687E
:1042600042F480721A607B6A00933B6A00224FF02E
:104270000111F86800F0C2F80346002B0DD0FB686E
:104280001B681B6803F48073B3F5807F03D1FB6860
:104290004FF400721A640323AAE07B89DBB21A464A
:1042A000FB681B6802F0FE021A617B6A3A6A524997
:1042B000F86800F01DF90346002B01D0012397E0B8
:1042C00000237B61FB681B685B697B61FB681B6883
:1042D0009B697B617B697A6A396AF86800F0A8F9A2
:1042E0000346002B0DD0FB681B6C042B07D1FB6829
:1042F0001B681A68FB681B6842F400721A6001238D
:1043000076E0FB88012B05D13B89DAB2FB681B689C
:104310001A6121E03B891B0A9BB2DAB2FB681B6879
:104320001A617A6A396AF86800F082F90346002B4C
:104330000DD0FB681B6C042B07D1FB681B681A6847
:10434000FB681B6842F400721A60012350E03B894D
:10435000DAB2FB681B681A617A6A396AF86800F099
:1043600067F90346002B0DD0FB681B6C042B07D1AB
:10437000FB681B681A68FB681B6842F400721A60CD
:10438000012335E0FB681B681A68FB681B6842F470
:1043900080721A607B6A00933B6A00224FF0011121
:1043A000F86800F02BF80346002B0DD0FB681B6863
:1043B0001B6803F48073B3F5807F03D1FB684FF46F
:1043C00000721A64032313E07B89DBB243F001031C
:1043D000DAB2FB681B681A617B6A3A6A0649F868B8
:1043E00000F086F80346002B01D0012300E00023F3
:1043F00018461837BD4680BD0200010080B584B064
:1044000000AFF860B9603B601346FB7148E03B6861
:10441000B3F1FF3F44D0FEF75FFE0246BB69D31AFB
:104420003A689A4202D33B68002B39D1BB681B0C17
:10443000DBB2012B0DD1FB681B685B69DA43BB68FB
:1044400013409BB2002B0CBF01230023DBB21A46A2
:104450000CE0FB681B689B69DA43BB6813409BB2A6
:10446000002B0CBF01230023DBB21A46FB799A42D2
:1044700016D1FB6800221A63FB68202283F83D20D6
:10448000FB68002283F83E20FB681B6C43F020028F
:10449000FB681A64FB68002283F83C20012323E0B8
:1044A000BB681B0CDBB2012B0DD1FB681B685B6981
:1044B000DA43BB6813409BB2002B0CBF01230023DF
:1044C000DBB21A460CE0FB681B689B69DA43BB68E9
:1044D00013409BB2002B0CBF01230023DBB21A4612
:1044E000FB799A4293D0002318461037BD4680BD11
:1044F00080B584B000AFF860B9607A603B6071E06D
:10450000FB681B685B6903F48063B3F5806F23D19C
:10451000FB681B681A68FB681B6842F400721A602B
:10452000FB681B686FF480625A61FB6800221A63A3
:10453000FB68202283F83D20FB68002283F83E20A0
:10454000FB681B6C43F00402FB681A64FB680022E2
:1045500083F83C20012367E07B68B3F1FF3F41D043
:10456000FEF7BAFD02463B68D31A7A689A4202D334
:104570007B68002B36D1BB681B0CDBB2012B0CD146
:10458000FB681B685B69DA43BB6813409BB2002B76
:1045900014BF01230023DBB20BE0FB681B689B699F
:1045A000DA43BB6813409BB2002B14BF01230023E6
:1045B000DBB2002B16D0FB6800221A63FB682022B6
:1045C00083F83D20FB68002283F83E20FB681B6CCB
:1045D00043F02002FB681A64FB68002283F83C2049
:1045E000012321E0BB681B0CDBB2012B0CD1FB6863
:1045F0001B685B69DA43BB6813409BB2002B14BF96
:1046000001230023DBB20BE0FB681B689B69DA43E4
:10461000BB6813409BB2002B14BF01230023DBB205
:10462000002B7FF46DAF002318461037BD4680BDC8
:1046300080B584B000AFF860B9607A6034E0F868A3
:1046400000F0E3F80346002B01D0012334E0BB68FF
:10465000B3F1FF3F28D0FEF73FFD02467B68D31A37
:10466000BA689A4202D3BB68002B1DD1FB681B6855
:104670005B6903F08003802B16D0FB6800221A636D
:10468000FB68202283F83D20FB68002283F83E204F
:10469000FB681B6C43F02002FB681A64FB68002275
:1046A00083F83C20012307E0FB681B685B6903F08B
:1046B0008003802BC3D1002318461037BD4680BD30
:1046C00080B584B000AFF860B9607A6034E0F86813
:1046D00000F09BF80346002B01D0012334E0BB68B7
:1046E000B3F1FF3F28D0FEF7F7FC02467B68D31AF0
:1046F000BA689A4202D3BB68002B1DD1FB681B68C5
:104700005B6903F00403042B16D0FB6800221A63D4
:10471000FB68202283F83D20FB68002283F83E20BE
:10472000FB681B6C43F02002FB681A64FB680022E4
:1047300083F83C20012307E0FB681B685B6903F0FA
:104740000403042BC3D1002318461037BD4680BD97
:1047500080B584B000AFF860B9607A6049E0FB686A
:104760001B685B6903F01003102B19D1FB681B68F1
:104770006FF010025A61FB6800221A63FB68202266
:1047800083F83D20FB68002283F83E20FB681A6C0A
:10479000FB681A64FB68002283F83C20012330E0A8
:1047A000FEF79AFC02467B68D31ABA689A4202D393
:1047B000BB68002B1DD1FB681B685B6903F04003DD
:1047C000402B16D0FB6800221A63FB68202283F876
:1047D0003D20FB68002283F83E20FB681B6C43F001
:1047E0002002FB681A64FB68002283F83C20012346
:1047F00007E0FB681B685B6903F04003402BAED108
:10480000002318461037BD4680BD80B483B000AF8A
:1048100078607B681B685B6903F48063B3F5806F25
:104820001BD17B681B686FF480625A617B68002231
:104830001A637B68202283F83D207B68002283F87E
:104840003E207B681B6C43F004027B681A647B6823
:10485000002283F83C20012300E0002318460C3797
:10486000BD465DF8047B704780B586B000AF7860C8
:104870007B68002B01D1012367E27B681B6803F092
:104880000103002B75D0884B9B6803F00C03042BAD
:104890000CD0854B9B6803F00C03082B12D1824B84
:1048A0005B6803F48003B3F5800F0BD17E4B1B686C
:1048B00003F40033002B5BD07B685B68002B57D17F
:1048C000012342E27B685B68B3F5803F06D1764BFB
:1048D0001B68754A43F4803313601DE07B685B6896
:1048E000B3F5A02F0CD1704B1B686F4A43F48023A3
:1048F00013606D4B1B686C4A43F4803313600BE00C
:10490000694B1B68684A23F480331360664B1B684D
:10491000654A23F4802313607B685B68002B13D007
:10492000FEF7DAFB386108E0FEF7D6FB02463B698A
:10493000D31A642B01D9032307E25B4B1B6803F4F2
:104940000033002BF0D014E0FEF7C6FB386108E01E
:10495000FEF7C2FB02463B69D31A642B01D903233D
:10496000F3E1514B1B6803F40033002BF0D100E05E
:1049700000BF7B681B6803F00203002B63D04A4B27
:104980009B6803F00C03002B0BD0474B9B6803F094
:104990000C03082B1CD1444B5B6803F48003002BF1
:1049A00016D1414B1B6803F00203002B05D07B6836
:1049B000DB68012B01D00123C7E13B4B1B6823F0CF
:1049C000F8027B681B69DB00374913430B603AE050
:1049D0007B68DB68002B20D0344B01221A60FEF785
:1049E0007BFB386108E0FEF777FB02463B69D31A90
:1049F000022B01D90323A8E12B4B1B6803F0020310
:104A0000002BF0D0284B1B6823F0F8027B681B6951
:104A1000DB00254913430B6015E0244B00221A608C
:104A2000FEF75AFB386108E0FEF756FB02463B6989
:104A3000D31A022B01D9032387E11B4B1B6803F018
:104A40000203002BF0D17B681B6803F00803002BE6
:104A500036D07B685B69002B16D0154B01221A609B
:104A6000FEF73AFB386108E0FEF736FB02463B6989
:104A7000D31A022B01D9032367E10B4B5B6F03F0C1
:104A80000203002BF0D01BE0094B00221A60FEF756
:104A900023FB38610EE0FEF71FFB02463B69D31A89
:104AA000022B07D9032350E100380240000047429F
:104AB000800E4742884B5B6F03F00203002BEAD164
:104AC0007B681B6803F00403002B00F09780002331
:104AD000FB75814B1B6C03F08053002B0FD100231F
:104AE000BB607D4B1B6C7C4A43F0805313647A4B54
:104AF0001B6C03F08053BB60BB680123FB75774BD5
:104B00001B6803F48073002B18D1744B1B68734A25
:104B100043F480731360FEF7DFFA386108E0FEF7B4
:104B2000DBFA02463B69D31A022B01D903230CE1BD
:104B30006A4B1B6803F48073002BF0D07B689B6882
:104B4000012B06D1644B1B6F634A43F001031367CB
:104B50001CE07B689B68052B0CD15F4B1B6F5E4A8A
:104B600043F0040313675C4B1B6F5B4A43F0010384
:104B700013670BE0584B1B6F574A23F00103136771
:104B8000554B1B6F544A23F0040313677B689B68E3
:104B9000002B15D0FEF7A0FA38610AE0FEF79CFA68
:104BA00002463B69D31A41F28832934201D903236A
:104BB000CBE0494B1B6F03F00203002BEED014E057
:104BC000FEF78AFA38610AE0FEF786FA02463B6988
:104BD000D31A41F28832934201D90323B5E03E4B08
:104BE0001B6F03F00203002BEED1FB7D012B05D1DF
:104BF000394B1B6C384A23F0805313647B689B69E4
:104C0000002B00F0A180344B9B6803F00C03082BB1
:104C10005CD07B689B69022B41D1314B00221A602A
:104C2000FEF75AFA386108E0FEF756FA02463B6989
:104C3000D31A022B01D9032387E0274B1B6803F00B
:104C40000073002BF0D17B68DA697B681B6A1A431A
:104C50007B685B6A9B011A437B689B6A5B08013B2C
:104C60001B041A437B68DB6A1B061B4913434B601A
:104C70001B4B01221A60FEF72FFA386108E0FEF79D
:104C80002BFA02463B69D31A022B01D903235CE0BD
:104C9000114B1B6803F00073002BF0D054E0104B55
:104CA00000221A60FEF718FA386108E0FEF714FADD
:104CB00002463B69D31A022B01D9032345E0064B78
:104CC0001B6803F00073002BF0D13DE07B689B690B
:104CD000012B07D1012338E000380240007000406A
:104CE000600047421B4B5B68FB607B689B69012B44
:104CF00028D0FB6803F480027B68DB699A4221D1EB
:104D0000FB6803F03F027B681B6A9A421AD1FA687B
:104D100047F6C07313407A68526A9201934211D1E8
:104D2000FB6803F440327B689B6A5B08013B1B0411
:104D30009A4207D1FB6803F070627B68DB6A1B064E
:104D40009A4201D0012300E0002318461837BD46DF
:104D500080BD00BF0038024080B584B000AF7860ED
:104D600039607B68002B01D10123CCE0684B1B68C4
:104D700003F007033A689A420CD9654B3A68D2B2FD
:104D80001A70634B1B6803F007033A689A4201D01C
:104D90000123B8E07B681B6803F00203002B20D0DE
:104DA0007B681B6803F00403002B05D0594B9B68FC
:104DB000584A43F4E05393607B681B6803F0080390
:104DC000002B05D0534B9B68524A43F460439360D9
:104DD000504B9B6823F0F0027B689B684D4913435E
:104DE0008B607B681B6803F00103002B44D07B6859
:104DF0005B68012B07D1474B1B6803F40033002B82
:104E000019D101237FE07B685B68022B03D07B68AC
:104E10005B68032B07D13F4B1B6803F00073002B2B
:104E200009D101236FE03B4B1B6803F00203002B09
:104E300001D1012367E0374B9B6823F003027B68B5
:104E40005B68344913438B60FEF746F9F8600AE06B
:104E5000FEF742F90246FB68D31A41F288329342C8
:104E600001D903234FE02B4B9B6803F00C027B68B6
:104E70005B689B009A42EBD1254B1B6803F007034C
:104E80003A689A420CD2224B3A68D2B21A70204B3E
:104E90001B6803F007033A689A4201D0012332E00D
:104EA0007B681B6803F00403002B08D0194B9B6838
:104EB00023F4E0527B68DB68164913438B607B6800
:104EC0001B6803F00803002B09D0124B9B6823F4E6
:104ED00060427B681B69DB000E4913438B6000F066
:104EE00021F802460B4B9B681B0903F00F030A498C
:104EF000CB5C22FA03F3094A1360094B1B6818467E
:104F0000FEF7A6F8002318461037BD4680BD00BF47
:104F1000003C024000380240F879000854010020AB
:104F2000580100202DE9B04F90B000AF00237B6303
:104F30000023FB6300233B630023BB63584B9B6848
:104F400003F00C03082B0DD0082B00F2A080002BDF
:104F500002D0042B03D09AE0524BBB639AE0524B31
:104F6000BB6397E04E4B5B6803F03F037B634C4BA6
:104F70005B6803F48003002B27D0494B5B689B09D7
:104F800000223B627A623B6AC3F308000021464B71
:104F900003FB01F2002300FB03F31344424AA0FB8E
:104FA0000221F962BA62FA6A1344FB627B6B002247
:104FB000BB61FA61D7E90623D7E90A01FBF768F973
:104FC00002460B461346FB6353E0354B5B689B0977
:104FD00000223B617A613B69C3F3080A4FF0000B82
:104FE00052465B464FF000004FF00001590141EA84
:104FF000D261500102460B46B2EB0A0863EB0B0983
:105000004FF000024FF000034FEA891343EA986320
:105010004FEA8812B2EB080463EB09054FF0000277
:105020004FF00003EB0043EA5473E20014461D46C0
:1050300014EB0A033B6045EB0B037B604FF000026F
:105040004FF00003D7E9004529468B02214643EA89
:10505000915321468A02104619467B6B0022BB60A1
:10506000FA60D7E90223FBF713F902460B46134611
:10507000FB630B4B5B681B0C03F0030301335B000A
:105080003B63FA6B3B6BB2FBF3F3BB6302E0054B94
:10509000BB6300BFBB6B18464037BD46BDE8B08F51
:1050A000003802400024F40040787D0180B400AF55
:1050B000034B1B681846BD465DF8047B704700BF74
:1050C0005401002080B500AFFFF7F0FF0246054B0A
:1050D0009B689B0A03F007030349CB5C22FA03F3A6
:1050E000184680BD00380240087A000880B500AF3D
:1050F000FFF7DCFF0246054B9B685B0B03F00703E1
:105100000349CB5C22FA03F3184680BD0038024005
:10511000087A000880B582B000AF78607B68002B09
:1051200001D1012341E07B6893F83D30DBB2002BD5
:1051300006D17B68002283F83C207868FDF7B6FC36
:105140007B68022283F83D207B681A687B68043301
:105150001946104600F0ECFA7B68012283F84620DD
:105160007B68012283F83E207B68012283F83F2080
:105170007B68012283F840207B68012283F841206C
:105180007B68012283F842207B68012283F8432058
:105190007B68012283F844207B68012283F8452044
:1051A0007B68012283F83D20002318460837BD465E
:1051B00080BD000080B584B000AF786039603B6886
:1051C000002B09D17B6893F83E30DBB2012B14BF72
:1051D00001230023DBB222E03B68042B09D17B686A
:1051E00093F83F30DBB2012B14BF01230023DBB265
:1051F00015E03B68082B09D17B6893F84030DBB29F
:10520000012B14BF01230023DBB208E07B6893F875
:105210004130DBB2012B14BF01230023DBB2002B92
:1052200001D001237CE03B68002B04D17B68022283
:1052300083F83E2013E03B68042B04D17B680222F4
:1052400083F83F200BE03B68082B04D17B680222E7
:1052500083F8402003E07B68022283F841207B68CA
:105260001B6801223968184600F0B8FC7B681B688F
:105270002D4A934204D07B681B682C4A934201D18B
:10528000012300E00023002B07D07B681B685A6CC9
:105290007B681B6842F400425A647B681B68224AA0
:1052A000934222D07B681B68B3F1804F1DD07B688E
:1052B0001B681F4A934218D07B681B681D4A9342A3
:1052C00013D07B681B681C4A93420ED07B681B6816
:1052D000164A934209D07B681B68184A934204D04F
:1052E0007B681B68164A934211D17B681B689B68D8
:1052F00003F00703FB60FB68062B10D07B681B687C
:105300001A687B681B6842F001021A6007E07B683C
:105310001B681A687B681B6842F001021A60002350
:1053200018461037BD4680BD000001400004014012
:105330000004004000080040000C00400040014014
:105340000018004080B586B000AF786039607B6897
:10535000002B01D1012397E07B6893F83D30DBB24D
:10536000002B06D17B68002283F83C207868FDF78B
:10537000EBFB7B68022283F83D207B681B689B68FF
:105380007A68126823F4804323F0070393607B68F4
:105390001A687B6804331946104600F0C9F97B6827
:1053A0001B689B687B617B681B689B693B617B68B2
:1053B0001B681B6AFB603B681B687A6913437B614F
:1053C0003B6923F4407323F003033B613B689A6815
:1053D0003B689B691B0213433A6913433B613B697A
:1053E00023F4406323F00C033B613B6923F47043D7
:1053F00023F0F0033B613B68DA683B68DB691B0222
:1054000013433A6913433B613B681B691A013B68CC
:105410001B6A1B0313433A6913433B61FB6823F088
:105420002203FB60FB6823F08803FB603B685A683B
:105430003B685B691B011343FA681343FB607B689D
:105440001B687A699A607B681B683A699A617B6815
:105450001B68FA681A627B68012283F846207B6821
:10546000012283F83E207B68012283F83F207B687D
:10547000012283F842207B68012283F843207B6865
:10548000012283F83D20002318461837BD4680BD11
:1054900080B584B000AF786039607B6893F83E30A7
:1054A000FB737B6893F83F30BB737B6893F84230A3
:1054B0007B737B6893F843303B733B68002B10D1C0
:1054C000FB7B012B02D17B7B012B01D0012369E007
:1054D0007B68022283F83E207B68022283F8422008
:1054E00031E03B68042B10D1BB7B012B02D13B7B0D
:1054F000012B01D0012355E07B68022283F83F2075
:105500007B68022283F843201DE0FB7B012B08D13E
:10551000BB7B012B05D17B7B012B02D13B7B012B7C
:1055200001D001233EE07B68022283F83E207B68A5
:10553000022283F83F207B68022283F842207B68A6
:10554000022283F843203B68002B03D03B68042BE6
:1055500008D00FE07B681B6801220021184600F08C
:105560003DFB16E07B681B6801220421184600F011
:1055700035FB0EE07B681B6801220021184600F015
:105580002DFB7B681B6801220421184600F026FBD6
:1055900000BF7B681B681A687B681B6842F00102C9
:1055A0001A60002318461037BD4680BD80B586B00E
:1055B00000AFF860B9607A600023FB75FB6893F870
:1055C0003C30012B01D10223AEE0FB68012283F8BD
:1055D0003C207B680C2B00F29F8001A252F823F044
:1055E00015560008195700081957000819570008E0
:1055F0005556000819570008195700081957000890
:10560000975600081957000819570008195700083D
:10561000D7560008FB681B68B968184600F02EF9D9
:10562000FB681B689A69FB681B6842F008029A6174
:10563000FB681B689A69FB681B6822F004029A6188
:10564000FB681B689969BB681A69FB681B680A4399
:105650009A6164E0FB681B68B968184600F07EF93F
:10566000FB681B689A69FB681B6842F400629A61D8
:10567000FB681B689A69FB681B6822F480629A6168
:10568000FB681B689969BB681B691A02FB681B6889
:105690000A439A6143E0FB681B68B968184600F04A
:1056A000D3F9FB681B68DA69FB681B6842F00802E3
:1056B000DA61FB681B68DA69FB681B6822F0040288
:1056C000DA61FB681B68D969BB681A69FB681B68EB
:1056D0000A43DA6123E0FB681B68B968184600F0EA
:1056E00027FAFB681B68DA69FB681B6842F40062F2
:1056F000DA61FB681B68DA69FB681B6822F4806268
:10570000DA61FB681B68D969BB681B691A02FB6810
:105710001B680A43DA6102E00123FB7500BFFB68E6
:10572000002283F83C20FB7D18461837BD4680BD1B
:1057300080B485B000AF786039607B681B68FB601F
:105740007B68434A934213D07B68B3F1804F0FD0FC
:105750007B68404A93420BD07B683F4A934207D014
:105760007B683E4A934203D07B683D4A934208D10E
:10577000FB6823F07003FB603B685B68FA681343C7
:10578000FB607B68324A93422BD07B68B3F1804F39
:1057900027D07B682F4A934223D07B682E4A9342BE
:1057A0001FD07B682D4A93421BD07B682C4A9342C2
:1057B00017D07B682B4A934213D07B682A4A9342C6
:1057C0000FD07B68294A93420BD07B68284A9342CA
:1057D00007D07B68274A934203D07B68264A9342CE
:1057E00008D1FB6823F44073FB603B68DB68FA6810
:1057F0001343FB60FB6823F080023B685B69134343
:10580000FB603B689A687B68DA623B681A687B6871
:105810009A627B680E4A934203D07B68104A934297
:1058200003D13B681A697B681A637B681B6843F085
:1058300004027B681A607B6801225A617B68FA68FF
:105840001A6000BF1437BD465DF8047B704700BF87
:10585000000001400004004000080040000C00402F
:105860000004014000400140004401400048014064
:1058700000180040001C00400020004080B487B0A9
:1058800000AF786039607B681B6A7B617B681B6A4C
:1058900023F001027B681A627B685B683B617B686E
:1058A0009B69FB60FB6823F07003FB60FB6823F0DF
:1058B0000303FB603B681B68FA681343FB607B696A
:1058C00023F002037B613B689B687A6913437B6129
:1058D0007B68204A934203D07B681F4A93420CD1D5
:1058E0007B6923F008037B613B68DB687A691343BB
:1058F0007B617B6923F004037B617B68154A9342DB
:1059000003D07B68144A934211D13B6923F480731E
:105910003B613B6923F400733B613B685B693A6917
:1059200013433B613B689B693A6913433B617B6866
:105930003A695A607B68FA689A613B685A687B6882
:105940005A637B687A691A6200BF1C37BD465DF8EE
:10595000047B7047000001400004014080B487B020
:1059600000AF786039607B681B6A7B617B681B6A6B
:1059700023F010027B681A627B685B683B617B687E
:105980009B69FB60FB6823F4E043FB60FB6823F446
:105990004073FB603B681B681B02FA681343FB60A3
:1059A0007B6923F020037B613B689B681B017A695C
:1059B00013437B617B68224A934203D07B68214A70
:1059C00093420DD17B6923F080037B613B68DB68E8
:1059D0001B017A6913437B617B6923F040037B6180
:1059E0007B68174A934203D07B68164A934213D1CF
:1059F0003B6923F480633B613B6923F400633B61B3
:105A00003B685B699B003A6913433B613B689B6958
:105A10009B003A6913433B617B683A695A607B6833
:105A2000FA689A613B685A687B689A637B687A690E
:105A30001A6200BF1C37BD465DF8047B704700BF8B
:105A4000000001400004014080B487B000AF7860DE
:105A500039607B681B6A7B617B681B6A23F48072F8
:105A60007B681A627B685B683B617B68DB69FB6013
:105A7000FB6823F07003FB60FB6823F00303FB600B
:105A80003B681B68FA681343FB607B6923F400736F
:105A90007B613B689B681B027A6913437B617B686F
:105AA000214A934203D07B68204A93420DD17B69FF
:105AB00023F400637B613B68DB681B027A69134354
:105AC0007B617B6923F480637B617B68164A934228
:105AD00003D07B68154A934213D13B6923F480536A
